{"abi":[{"type":"constructor","inputs":[{"name":"_initialOwner","type":"address","internalType":"address"}],"stateMutability":"nonpayable"},{"type":"function","name":"addStrategy","inputs":[{"name":"name","type":"string","internalType":"string"},{"name":"targetContract","type":"address","internalType":"address"},{"name":"rollupChainId","type":"uint256","internalType":"uint256"},{"name":"targetAPY","type":"uint256","internalType":"uint256"},{"name":"initialRiskScore","type":"uint256","internalType":"uint256"}],"outputs":[{"name":"","type":"uint256","internalType":"uint256"}],"stateMutability":"nonpayable"},{"type":"function","name":"aiOperator","inputs":[],"outputs":[{"name":"","type":"address","internalType":"address"}],"stateMutability":"view"},{"type":"function","name":"bridgeToRollup","inputs":[{"name":"strategyId","type":"uint256","internalType":"uint256"},{"name":"amount","type":"uint256","internalType":"uint256"},{"name":"destChainId","type":"uint256","internalType":"uint256"}],"outputs":[],"stateMutability":"nonpayable"},{"type":"function","name":"getActiveStrategies","inputs":[],"outputs":[{"name":"","type":"uint256[]","internalType":"uint256[]"}],"stateMutability":"view"},{"type":"function","name":"getStrategy","inputs":[{"name":"strategyId","type":"uint256","internalType":"uint256"}],"outputs":[{"name":"","type":"tuple","internalType":"struct MindyStrategyManager.Strategy","components":[{"name":"id","type":"uint256","internalType":"uint256"},{"name":"name","type":"string","internalType":"string"},{"name":"targetContract","type":"address","internalType":"address"},{"name":"rollupChainId","type":"uint256","internalType":"uint256"},{"name":"targetAPY","type":"uint256","internalType":"uint256"},{"name":"riskScore","type":"uint256","internalType":"uint256"},{"name":"currentAllocation","type":"uint256","internalType":"uint256"},{"name":"isActive","type":"bool","internalType":"bool"},{"name":"reasoning","type":"string","internalType":"string"}]}],"stateMutability":"view"},{"type":"function","name":"getStrategyCount","inputs":[],"outputs":[{"name":"","type":"uint256","internalType":"uint256"}],"stateMutability":"view"},{"type":"function","name":"harvest","inputs":[{"name":"strategyId","type":"uint256","internalType":"uint256"}],"outputs":[],"stateMutability":"nonpayable"},{"type":"function","name":"owner","inputs":[],"outputs":[{"name":"","type":"address","internalType":"address"}],"stateMutability":"view"},{"type":"function","name":"rebalance","inputs":[{"name":"allocations","type":"tuple[]","internalType":"struct MindyStrategyManager.StrategyAllocation[]","components":[{"name":"strategyId","type":"uint256","internalType":"uint256"},{"name":"allocationBps","type":"uint256","internalType":"uint256"}]}],"outputs":[],"stateMutability":"nonpayable"},{"type":"function","name":"renounceOwnership","inputs":[],"outputs":[],"stateMutability":"nonpayable"},{"type":"function","name":"setAIOperator","inputs":[{"name":"_aiOperator","type":"address","internalType":"address"}],"outputs":[],"stateMutability":"nonpayable"},{"type":"function","name":"setStrategyActive","inputs":[{"name":"strategyId","type":"uint256","internalType":"uint256"},{"name":"isActive","type":"bool","internalType":"bool"}],"outputs":[],"stateMutability":"nonpayable"},{"type":"function","name":"setVault","inputs":[{"name":"_vault","type":"address","internalType":"address"}],"outputs":[],"stateMutability":"nonpayable"},{"type":"function","name":"strategies","inputs":[{"name":"","type":"uint256","internalType":"uint256"}],"outputs":[{"name":"id","type":"uint256","internalType":"uint256"},{"name":"name","type":"string","internalType":"string"},{"name":"targetContract","type":"address","internalType":"address"},{"name":"rollupChainId","type":"uint256","internalType":"uint256"},{"name":"targetAPY","type":"uint256","internalType":"uint256"},{"name":"riskScore","type":"uint256","internalType":"uint256"},{"name":"currentAllocation","type":"uint256","internalType":"uint256"},{"name":"isActive","type":"bool","internalType":"bool"},{"name":"reasoning","type":"string","internalType":"string"}],"stateMutability":"view"},{"type":"function","name":"strategyCount","inputs":[],"outputs":[{"name":"","type":"uint256","internalType":"uint256"}],"stateMutability":"view"},{"type":"function","name":"transferOwnership","inputs":[{"name":"newOwner","type":"address","internalType":"address"}],"outputs":[],"stateMutability":"nonpayable"},{"type":"function","name":"updateRiskScore","inputs":[{"name":"strategyId","type":"uint256","internalType":"uint256"},{"name":"newScore","type":"uint256","internalType":"uint256"},{"name":"reasoning","type":"string","internalType":"string"}],"outputs":[],"stateMutability":"nonpayable"},{"type":"function","name":"updateStrategy","inputs":[{"name":"strategyId","type":"uint256","internalType":"uint256"},{"name":"targetAPY","type":"uint256","internalType":"uint256"},{"name":"riskScore","type":"uint256","internalType":"uint256"}],"outputs":[],"stateMutability":"nonpayable"},{"type":"function","name":"vault","inputs":[],"outputs":[{"name":"","type":"address","internalType":"contract IMindyVault"}],"stateMutability":"view"},{"type":"event","name":"AIOperatorUpdated","inputs":[{"name":"oldOperator","type":"address","indexed":true,"internalType":"address"},{"name":"newOperator","type":"address","indexed":true,"internalType":"address"}],"anonymous":false},{"type":"event","name":"FundsBridged","inputs":[{"name":"strategyId","type":"uint256","indexed":true,"internalType":"uint256"},{"name":"amount","type":"uint256","indexed":false,"internalType":"uint256"},{"name":"destChainId","type":"uint256","indexed":false,"internalType":"uint256"}],"anonymous":false},{"type":"event","name":"Harvested","inputs":[{"name":"strategyId","type":"uint256","indexed":true,"internalType":"uint256"},{"name":"profit","type":"uint256","indexed":false,"internalType":"uint256"}],"anonymous":false},{"type":"event","name":"OwnershipTransferred","inputs":[{"name":"previousOwner","type":"address","indexed":true,"internalType":"address"},{"name":"newOwner","type":"address","indexed":true,"internalType":"address"}],"anonymous":false},{"type":"event","name":"RiskScoreUpdated","inputs":[{"name":"strategyId","type":"uint256","indexed":true,"internalType":"uint256"},{"name":"oldScore","type":"uint256","indexed":false,"internalType":"uint256"},{"name":"newScore","type":"uint256","indexed":false,"internalType":"uint256"},{"name":"reasoning","type":"string","indexed":false,"internalType":"string"}],"anonymous":false},{"type":"event","name":"StrategyAdded","inputs":[{"name":"strategyId","type":"uint256","indexed":true,"internalType":"uint256"},{"name":"name","type":"string","indexed":false,"internalType":"string"},{"name":"rollupChainId","type":"uint256","indexed":false,"internalType":"uint256"}],"anonymous":false},{"type":"event","name":"StrategyRebalanced","inputs":[{"name":"strategyIds","type":"uint256[]","indexed":false,"internalType":"uint256[]"},{"name":"allocations","type":"uint256[]","indexed":false,"internalType":"uint256[]"},{"name":"timestamp","type":"uint256","indexed":false,"internalType":"uint256"}],"anonymous":false},{"type":"event","name":"StrategyUpdated","inputs":[{"name":"strategyId","type":"uint256","indexed":true,"internalType":"uint256"},{"name":"targetAPY","type":"uint256","indexed":false,"internalType":"uint256"},{"name":"riskScore","type":"uint256","indexed":false,"internalType":"uint256"}],"anonymous":false},{"type":"event","name":"VaultUpdated","inputs":[{"name":"oldVault","type":"address","indexed":true,"internalType":"address"},{"name":"newVault","type":"address","indexed":true,"internalType":"address"}],"anonymous":false},{"type":"error","name":"OwnableInvalidOwner","inputs":[{"name":"owner","type":"address","internalType":"address"}]},{"type":"error","name":"OwnableUnauthorizedAccount","inputs":[{"name":"account","type":"address","internalType":"address"}]},{"type":"error","name":"ReentrancyGuardReentrantCall","inputs":[]}],"bytecode":{"object":"0x608060405234801562000010575f80fd5b5060405162001e5e38038062001e5e833981016040819052620000339162000107565b806001600160a01b0381166200006257604051631e4fbdf760e01b81525f600482015260240160405180910390fd5b6200006d81620000b8565b5060017f9b779b17422d0df92223018b32b4d1fa46e071723d6817e2486d003becc55f0055600680546001600160a01b0319166001600160a01b039290921691909117905562000136565b5f80546001600160a01b038381166001600160a01b0319831681178455604051919092169283917f8be0079c531659141344cd1fd0a4f28419497f9722a3daafe3b4186f6b6457e09190a35050565b5f6020828403121562000118575f80fd5b81516001600160a01b03811681146200012f575f80fd5b9392505050565b611d1a80620001445f395ff3fe608060405234801561000f575f80fd5b506004361061011c575f3560e01c806398e749ff116100a9578063e74c0d761161006e578063e74c0d7614610254578063f2fde38b14610267578063f703f7541461027a578063fbfa77cf1461028d578063fc0f4f20146102a0575f80fd5b806398e749ff146101d3578063cfc0cc34146101e6578063d574ea3d14610206578063ddc632621461022e578063e2255a9c14610241575f80fd5b80636817031b116100ef5780636817031b1461016c578063715018a6146101815780638beed957146101895780638da5cb5b1461019c5780639749e660146101c0575f80fd5b8063200193d21461012057806322068b441461014657806331e19cfa1461014f578063587436e414610157575b5f80fd5b61013361012e36600461164e565b6102b3565b6040519081526020015b60405180910390f35b61013360015481565b600154610133565b61015f610469565b60405161013d91906116eb565b61017f61017a3660046116fd565b6104ff565b005b61017f6105b0565b61017f610197366004611716565b6105c3565b5f546001600160a01b03165b6040516001600160a01b03909116815260200161013d565b61017f6101ce3660046116fd565b6106d9565b61017f6101e136600461173f565b61078a565b6101f96101f43660046117ae565b610c99565b60405161013d9190611808565b6102196102143660046117ae565b610e87565b60405161013d999897969594939291906118ae565b61017f61023c3660046117ae565b610fef565b61017f61024f36600461191a565b611100565b61017f610262366004611966565b6111f3565b61017f6102753660046116fd565b611267565b6006546101a8906001600160a01b031681565b6005546101a8906001600160a01b031681565b61017f6102ae366004611716565b6112a1565b5f6102bc611349565b60648211156102e65760405162461bcd60e51b81526004016102dd90611998565b60405180910390fd5b600180545f91826102f6836119e3565b90915550604080516101208101825282815260208082018b81526001600160a01b038b1683850152606083018a90526080830189905260a083018890525f60c08401819052600160e08501819052855180870187526016815275125b9a5d1a585b081cdd1c985d1959de48185919195960521b818601526101008601528682526002909352939093208251815592519394509092908201906103989082611a7e565b5060408201516002820180546001600160a01b0319166001600160a01b03909216919091179055606082015160038201556080820151600482015560a0820151600582015560c0820151600682015560e082015160078201805460ff191691151591909117905561010082015160088201906104149082611a7e565b5061042491506003905082611375565b50807f6775a9046bbe59478dd494d50a36e41b492553c450763494b97c3dc5bd4a93c38887604051610457929190611b3e565b60405180910390a29695505050505050565b60605f6104766003611389565b90505f8167ffffffffffffffff81111561049257610492611596565b6040519080825280602002602001820160405280156104bb578160200160208202803683370190505b5090505f5b828110156104f8576104d3600382611392565b8282815181106104e5576104e5611b5f565b60209081029190910101526001016104c0565b5092915050565b610507611349565b6001600160a01b0381166105555760405162461bcd60e51b81526020600482015260156024820152744d696e6479534d3a207a65726f206164647265737360581b60448201526064016102dd565b6005546040516001600160a01b038084169216907f483bdedaaf23706a9800ac1af0d852b34927780d79f9d6ba60a80c7cad75ea39905f90a3600580546001600160a01b0319166001600160a01b0392909216919091179055565b6105b8611349565b6105c15f61139d565b565b6006546001600160a01b03163314806105e557505f546001600160a01b031633145b6106015760405162461bcd60e51b81526004016102dd90611b73565b5f83815260026020526040812054900361062d5760405162461bcd60e51b81526004016102dd90611baa565b5f82116106735760405162461bcd60e51b8152602060048201526014602482015273135a5b991e54d34e881e995c9bc8185b5bdd5b9d60621b60448201526064016102dd565b5f8381526002602052604081206006018054849290610693908490611be1565b9091555050604080518381526020810183905284917fb90fa6f4d2394b828d7ca408638570c9d77823c3554752f483e286cdd883174c91015b60405180910390a2505050565b6106e1611349565b6001600160a01b03811661072f5760405162461bcd60e51b81526020600482015260156024820152744d696e6479534d3a207a65726f206164647265737360581b60448201526064016102dd565b6006546040516001600160a01b038084169216907f89f23c08aad3ec350deeffc182519744a40eb25c1d12306ceff16a90266f24b5905f90a3600680546001600160a01b0319166001600160a01b0392909216919091179055565b6006546001600160a01b03163314806107ac57505f546001600160a01b031633145b6107c85760405162461bcd60e51b81526004016102dd90611b73565b6107d06113ec565b6005546001600160a01b03166108215760405162461bcd60e51b8152602060048201526016602482015275135a5b991e54d34e881d985d5b1d081b9bdd081cd95d60521b60448201526064016102dd565b8061086e5760405162461bcd60e51b815260206004820152601a60248201527f4d696e6479534d3a20656d70747920616c6c6f636174696f6e7300000000000060448201526064016102dd565b5f805b828110156109765760025f85858481811061088e5761088e611b5f565b9050604002015f013581526020019081526020015f205f01545f036108c55760405162461bcd60e51b81526004016102dd90611baa565b60025f8585848181106108da576108da611b5f565b604090810292909201358352506020820192909252015f206007015460ff166109455760405162461bcd60e51b815260206004820152601a60248201527f4d696e6479534d3a20737472617465677920696e61637469766500000000000060448201526064016102dd565b83838281811061095757610957611b5f565b905060400201602001358261096c9190611be1565b9150600101610871565b5080612710146109d75760405162461bcd60e51b815260206004820152602660248201527f4d696e6479534d3a20616c6c6f636174696f6e73206d7573742073756d20746f60448201526502031303030360d41b60648201526084016102dd565b600554604080516311bf3fd360e21b815290515f926001600160a01b0316916346fcff4c9160048083019260209291908290030181865afa158015610a1e573d5f803e3d5ffd5b505050506040513d601f19601f82011682018060405250810190610a429190611bf4565b90505f8111610a935760405162461bcd60e51b815260206004820152601b60248201527f4d696e6479534d3a206e6f20617661696c61626c652066756e6473000000000060448201526064016102dd565b5f8367ffffffffffffffff811115610aad57610aad611596565b604051908082528060200260200182016040528015610ad6578160200160208202803683370190505b5090505f8467ffffffffffffffff811115610af357610af3611596565b604051908082528060200260200182016040528015610b1c578160200160208202803683370190505b5090505f5b85811015610c3f575f878783818110610b3c57610b3c611b5f565b9050604002015f013590505f888884818110610b5a57610b5a611b5f565b9050604002016020013590505f6127108288610b769190611c0b565b610b809190611c22565b90508015610c34575f83815260026020526040908190206006018290556005549051631b9c304160e11b8152600481018390526001600160a01b03909116906337386082906024015f604051808303815f87803b158015610bdf575f80fd5b505af1158015610bf1573d5f803e3d5ffd5b5050505082868581518110610c0857610c08611b5f565b60200260200101818152505081858581518110610c2757610c27611b5f565b6020026020010181815250505b505050600101610b21565b507ff6d05771efcee1a5724788485d1026c3ce5bbeea7b5c43d0fa4714b6d21fcc5d828242604051610c7393929190611c41565b60405180910390a150505050610c9560015f80516020611cc583398151915255565b5050565b610cec6040518061012001604052805f8152602001606081526020015f6001600160a01b031681526020015f81526020015f81526020015f81526020015f81526020015f15158152602001606081525090565b60025f8381526020019081526020015f20604051806101200160405290815f8201548152602001600182018054610d22906119fb565b80601f0160208091040260200160405190810160405280929190818152602001828054610d4e906119fb565b8015610d995780601f10610d7057610100808354040283529160200191610d99565b820191905f5260205f20905b815481529060010190602001808311610d7c57829003601f168201915b505050918352505060028201546001600160a01b03166020820152600382015460408201526004820154606082015260058201546080820152600682015460a0820152600782015460ff16151560c082015260088201805460e090920191610e00906119fb565b80601f0160208091040260200160405190810160405280929190818152602001828054610e2c906119fb565b8015610e775780601f10610e4e57610100808354040283529160200191610e77565b820191905f5260205f20905b815481529060010190602001808311610e5a57829003601f168201915b5050505050815250509050919050565b60026020525f908152604090208054600182018054919291610ea8906119fb565b80601f0160208091040260200160405190810160405280929190818152602001828054610ed4906119fb565b8015610f1f5780601f10610ef657610100808354040283529160200191610f1f565b820191905f5260205f20905b815481529060010190602001808311610f0257829003601f168201915b5050505060028301546003840154600485015460058601546006870154600788015460088901805498996001600160a01b039097169895975093959294919360ff9091169291610f6e906119fb565b80601f0160208091040260200160405190810160405280929190818152602001828054610f9a906119fb565b8015610fe55780601f10610fbc57610100808354040283529160200191610fe5565b820191905f5260205f20905b815481529060010190602001808311610fc857829003601f168201915b5050505050905089565b610ff76113ec565b5f8181526002602052604081205490036110235760405162461bcd60e51b81526004016102dd90611baa565b5f817ffa07446fad45314351eb89109a154880278451332bb87f1824d435fe58da59398260405161105691815260200190565b60405180910390a25f82815260026020526040902060060154156110e6576005545f838152600260205260409081902060060154905163d414e79d60e01b81526001600160a01b039092169163d414e79d916110b89160040190815260200190565b5f604051808303815f87803b1580156110cf575f80fd5b505af11580156110e1573d5f803e3d5ffd5b505050505b506110fd60015f80516020611cc583398151915255565b50565b6006546001600160a01b031633148061112257505f546001600160a01b031633145b61113e5760405162461bcd60e51b81526004016102dd90611b73565b5f83815260026020526040812054900361116a5760405162461bcd60e51b81526004016102dd90611baa565b606482111561118b5760405162461bcd60e51b81526004016102dd90611998565b5f83815260026020526040902060058101805490849055906008016111b08382611a7e565b50837f3141de1ceafb5e68e74d9135d5951853a4c69399ff1580f4a0046f19c4618c488285856040516111e593929190611c76565b60405180910390a250505050565b6111fb611349565b5f8281526002602052604081205490036112275760405162461bcd60e51b81526004016102dd90611baa565b5f828152600260205260409020600701805460ff1916821580159190911790915561125c57611257600383611375565b505050565b611257600383611407565b61126f611349565b6001600160a01b03811661129857604051631e4fbdf760e01b81525f60048201526024016102dd565b6110fd8161139d565b6112a9611349565b5f8381526002602052604081205490036112d55760405162461bcd60e51b81526004016102dd90611baa565b60648111156112f65760405162461bcd60e51b81526004016102dd90611998565b5f8381526002602090815260409182902060048101859055600501839055815184815290810183905284917f9df4bae5baa064f37bf744e8bb7c003e974b673c53d6a3971b4ecbfc78b3cef491016106cc565b5f546001600160a01b031633146105c15760405163118cdaa760e01b81523360048201526024016102dd565b5f6113808383611412565b90505b92915050565b5f611383825490565b5f611380838361145e565b5f80546001600160a01b038381166001600160a01b0319831681178455604051919092169283917f8be0079c531659141344cd1fd0a4f28419497f9722a3daafe3b4186f6b6457e09190a35050565b6113f4611484565b60025f80516020611cc583398151915255565b5f61138083836114b3565b5f81815260018301602052604081205461145757508154600181810184555f848152602080822090930184905584548482528286019093526040902091909155611383565b505f611383565b5f825f01828154811061147357611473611b5f565b905f5260205f200154905092915050565b5f80516020611cc5833981519152546002036105c157604051633ee5aeb560e01b815260040160405180910390fd5b5f818152600183016020526040812054801561158d575f6114d5600183611c9d565b85549091505f906114e890600190611c9d565b9050808214611547575f865f01828154811061150657611506611b5f565b905f5260205f200154905080875f01848154811061152657611526611b5f565b5f918252602080832090910192909255918252600188019052604090208390555b855486908061155857611558611cb0565b600190038181905f5260205f20015f90559055856001015f8681526020019081526020015f205f905560019350505050611383565b5f915050611383565b634e487b7160e01b5f52604160045260245ffd5b5f82601f8301126115b9575f80fd5b813567ffffffffffffffff808211156115d4576115d4611596565b604051601f8301601f19908116603f011681019082821181831017156115fc576115fc611596565b81604052838152866020858801011115611614575f80fd5b836020870160208301375f602085830101528094505050505092915050565b80356001600160a01b0381168114611649575f80fd5b919050565b5f805f805f60a08688031215611662575f80fd5b853567ffffffffffffffff811115611678575f80fd5b611684888289016115aa565b95505061169360208701611633565b94979496505050506040830135926060810135926080909101359150565b5f815180845260208085019450602084015f5b838110156116e0578151875295820195908201906001016116c4565b509495945050505050565b602081525f61138060208301846116b1565b5f6020828403121561170d575f80fd5b61138082611633565b5f805f60608486031215611728575f80fd5b505081359360208301359350604090920135919050565b5f8060208385031215611750575f80fd5b823567ffffffffffffffff80821115611767575f80fd5b818501915085601f83011261177a575f80fd5b813581811115611788575f80fd5b8660208260061b850101111561179c575f80fd5b60209290920196919550909350505050565b5f602082840312156117be575f80fd5b5035919050565b5f81518084525f5b818110156117e9576020818501810151868301820152016117cd565b505f602082860101526020601f19601f83011685010191505092915050565b60208152815160208201525f60208301516101208060408501526118306101408501836117c5565b9150604085015161184c60608601826001600160a01b03169052565b5060608501516080850152608085015160a085015260a085015160c085015260c085015160e085015260e085015161010061188a8187018315159052565b860151858403601f19018387015290506118a483826117c5565b9695505050505050565b5f6101208b83528060208401526118c78184018c6117c5565b905060018060a01b038a1660408401528860608401528760808401528660a08401528560c084015284151560e084015282810361010084015261190a81856117c5565b9c9b505050505050505050505050565b5f805f6060848603121561192c575f80fd5b8335925060208401359150604084013567ffffffffffffffff811115611950575f80fd5b61195c868287016115aa565b9150509250925092565b5f8060408385031215611977575f80fd5b823591506020830135801515811461198d575f80fd5b809150509250929050565b6020808252601b908201527f4d696e6479534d3a20696e76616c6964207269736b2073636f72650000000000604082015260600190565b634e487b7160e01b5f52601160045260245ffd5b5f600182016119f4576119f46119cf565b5060010190565b600181811c90821680611a0f57607f821691505b602082108103611a2d57634e487b7160e01b5f52602260045260245ffd5b50919050565b601f82111561125757805f5260205f20601f840160051c81016020851015611a585750805b601f840160051c820191505b81811015611a77575f8155600101611a64565b5050505050565b815167ffffffffffffffff811115611a9857611a98611596565b611aac81611aa684546119fb565b84611a33565b602080601f831160018114611adf575f8415611ac85750858301515b5f19600386901b1c1916600185901b178555611b36565b5f85815260208120601f198616915b82811015611b0d57888601518255948401946001909101908401611aee565b5085821015611b2a57878501515f19600388901b60f8161c191681555b505060018460011b0185555b505050505050565b604081525f611b5060408301856117c5565b90508260208301529392505050565b634e487b7160e01b5f52603260045260245ffd5b60208082526018908201527f4d696e6479534d3a206e6f74204149206f70657261746f720000000000000000604082015260600190565b60208082526019908201527f4d696e6479534d3a20696e76616c696420737472617465677900000000000000604082015260600190565b80820180821115611383576113836119cf565b5f60208284031215611c04575f80fd5b5051919050565b8082028115828204841417611383576113836119cf565b5f82611c3c57634e487b7160e01b5f52601260045260245ffd5b500490565b606081525f611c5360608301866116b1565b8281036020840152611c6581866116b1565b915050826040830152949350505050565b838152826020820152606060408201525f611c9460608301846117c5565b95945050505050565b81810381811115611383576113836119cf565b634e487b7160e01b5f52603160045260245ffdfe9b779b17422d0df92223018b32b4d1fa46e071723d6817e2486d003becc55f00a2646970667358221220751633fc320d6a38a44dc3bcb1ea6ce61a2826275317eaed757f84996ae7943c64736f6c63430008180033","linkReferences":{}},"methodIdentifiers":{"addStrategy(string,address,uint256,uint256,uint256)":"200193d2","aiOperator()":"f703f754","bridgeToRollup(uint256,uint256,uint256)":"8beed957","getActiveStrategies()":"587436e4","getStrategy(uint256)":"cfc0cc34","getStrategyCount()":"31e19cfa","harvest(uint256)":"ddc63262","owner()":"8da5cb5b","rebalance((uint256,uint256)[])":"98e749ff","renounceOwnership()":"715018a6","setAIOperator(address)":"9749e660","setStrategyActive(uint256,bool)":"e74c0d76","setVault(address)":"6817031b","strategies(uint256)":"d574ea3d","strategyCount()":"22068b44","transferOwnership(address)":"f2fde38b","updateRiskScore(uint256,uint256,string)":"e2255a9c","updateStrategy(uint256,uint256,uint256)":"fc0f4f20","vault()":"fbfa77cf"},"id":26}