{"abi":[{"type":"constructor","inputs":[{"name":"_underlyingToken","type":"address","internalType":"address"},{"name":"_initialOwner","type":"address","internalType":"address"}],"stateMutability":"nonpayable"},{"type":"function","name":"allocateToStrategy","inputs":[{"name":"amount","type":"uint256","internalType":"uint256"}],"outputs":[],"stateMutability":"nonpayable"},{"type":"function","name":"allowance","inputs":[{"name":"owner","type":"address","internalType":"address"},{"name":"spender","type":"address","internalType":"address"}],"outputs":[{"name":"","type":"uint256","internalType":"uint256"}],"stateMutability":"view"},{"type":"function","name":"approve","inputs":[{"name":"spender","type":"address","internalType":"address"},{"name":"value","type":"uint256","internalType":"uint256"}],"outputs":[{"name":"","type":"bool","internalType":"bool"}],"stateMutability":"nonpayable"},{"type":"function","name":"asset","inputs":[],"outputs":[{"name":"","type":"address","internalType":"address"}],"stateMutability":"view"},{"type":"function","name":"availableFunds","inputs":[],"outputs":[{"name":"","type":"uint256","internalType":"uint256"}],"stateMutability":"view"},{"type":"function","name":"balanceOf","inputs":[{"name":"account","type":"address","internalType":"address"}],"outputs":[{"name":"","type":"uint256","internalType":"uint256"}],"stateMutability":"view"},{"type":"function","name":"convertToAssets","inputs":[{"name":"shares","type":"uint256","internalType":"uint256"}],"outputs":[{"name":"","type":"uint256","internalType":"uint256"}],"stateMutability":"view"},{"type":"function","name":"convertToShares","inputs":[{"name":"assets","type":"uint256","internalType":"uint256"}],"outputs":[{"name":"","type":"uint256","internalType":"uint256"}],"stateMutability":"view"},{"type":"function","name":"decimals","inputs":[],"outputs":[{"name":"","type":"uint8","internalType":"uint8"}],"stateMutability":"pure"},{"type":"function","name":"deposit","inputs":[{"name":"assets","type":"uint256","internalType":"uint256"},{"name":"receiver","type":"address","internalType":"address"}],"outputs":[{"name":"","type":"uint256","internalType":"uint256"}],"stateMutability":"nonpayable"},{"type":"function","name":"deposit","inputs":[{"name":"amount","type":"uint256","internalType":"uint256"}],"outputs":[{"name":"shares","type":"uint256","internalType":"uint256"}],"stateMutability":"nonpayable"},{"type":"function","name":"emergencyWithdraw","inputs":[{"name":"shares","type":"uint256","internalType":"uint256"}],"outputs":[{"name":"amount","type":"uint256","internalType":"uint256"}],"stateMutability":"nonpayable"},{"type":"function","name":"harvest","inputs":[],"outputs":[],"stateMutability":"nonpayable"},{"type":"function","name":"lastHarvestTimestamp","inputs":[],"outputs":[{"name":"","type":"uint256","internalType":"uint256"}],"stateMutability":"view"},{"type":"function","name":"maxDeposit","inputs":[{"name":"","type":"address","internalType":"address"}],"outputs":[{"name":"","type":"uint256","internalType":"uint256"}],"stateMutability":"view"},{"type":"function","name":"maxMint","inputs":[{"name":"","type":"address","internalType":"address"}],"outputs":[{"name":"","type":"uint256","internalType":"uint256"}],"stateMutability":"view"},{"type":"function","name":"maxRedeem","inputs":[{"name":"owner","type":"address","internalType":"address"}],"outputs":[{"name":"","type":"uint256","internalType":"uint256"}],"stateMutability":"view"},{"type":"function","name":"maxWithdraw","inputs":[{"name":"owner","type":"address","internalType":"address"}],"outputs":[{"name":"","type":"uint256","internalType":"uint256"}],"stateMutability":"view"},{"type":"function","name":"mint","inputs":[{"name":"shares","type":"uint256","internalType":"uint256"},{"name":"receiver","type":"address","internalType":"address"}],"outputs":[{"name":"","type":"uint256","internalType":"uint256"}],"stateMutability":"nonpayable"},{"type":"function","name":"name","inputs":[],"outputs":[{"name":"","type":"string","internalType":"string"}],"stateMutability":"view"},{"type":"function","name":"owner","inputs":[],"outputs":[{"name":"","type":"address","internalType":"address"}],"stateMutability":"view"},{"type":"function","name":"pendingRewards","inputs":[{"name":"user","type":"address","internalType":"address"}],"outputs":[{"name":"","type":"uint256","internalType":"uint256"}],"stateMutability":"view"},{"type":"function","name":"performanceFeeBps","inputs":[],"outputs":[{"name":"","type":"uint256","internalType":"uint256"}],"stateMutability":"view"},{"type":"function","name":"previewDeposit","inputs":[{"name":"assets","type":"uint256","internalType":"uint256"}],"outputs":[{"name":"","type":"uint256","internalType":"uint256"}],"stateMutability":"view"},{"type":"function","name":"previewMint","inputs":[{"name":"shares","type":"uint256","internalType":"uint256"}],"outputs":[{"name":"","type":"uint256","internalType":"uint256"}],"stateMutability":"view"},{"type":"function","name":"previewRedeem","inputs":[{"name":"shares","type":"uint256","internalType":"uint256"}],"outputs":[{"name":"","type":"uint256","internalType":"uint256"}],"stateMutability":"view"},{"type":"function","name":"previewWithdraw","inputs":[{"name":"assets","type":"uint256","internalType":"uint256"}],"outputs":[{"name":"","type":"uint256","internalType":"uint256"}],"stateMutability":"view"},{"type":"function","name":"redeem","inputs":[{"name":"shares","type":"uint256","internalType":"uint256"},{"name":"receiver","type":"address","internalType":"address"},{"name":"owner","type":"address","internalType":"address"}],"outputs":[{"name":"","type":"uint256","internalType":"uint256"}],"stateMutability":"nonpayable"},{"type":"function","name":"renounceOwnership","inputs":[],"outputs":[],"stateMutability":"nonpayable"},{"type":"function","name":"returnFromStrategy","inputs":[{"name":"amount","type":"uint256","internalType":"uint256"}],"outputs":[],"stateMutability":"nonpayable"},{"type":"function","name":"setPerformanceFee","inputs":[{"name":"_feeBps","type":"uint256","internalType":"uint256"}],"outputs":[],"stateMutability":"nonpayable"},{"type":"function","name":"setStrategyManager","inputs":[{"name":"_strategyManager","type":"address","internalType":"address"}],"outputs":[],"stateMutability":"nonpayable"},{"type":"function","name":"strategyManager","inputs":[],"outputs":[{"name":"","type":"address","internalType":"address"}],"stateMutability":"view"},{"type":"function","name":"symbol","inputs":[],"outputs":[{"name":"","type":"string","internalType":"string"}],"stateMutability":"view"},{"type":"function","name":"totalAllocated","inputs":[],"outputs":[{"name":"","type":"uint256","internalType":"uint256"}],"stateMutability":"view"},{"type":"function","name":"totalAssets","inputs":[],"outputs":[{"name":"","type":"uint256","internalType":"uint256"}],"stateMutability":"view"},{"type":"function","name":"totalSupply","inputs":[],"outputs":[{"name":"","type":"uint256","internalType":"uint256"}],"stateMutability":"view"},{"type":"function","name":"transfer","inputs":[{"name":"to","type":"address","internalType":"address"},{"name":"value","type":"uint256","internalType":"uint256"}],"outputs":[{"name":"","type":"bool","internalType":"bool"}],"stateMutability":"nonpayable"},{"type":"function","name":"transferFrom","inputs":[{"name":"from","type":"address","internalType":"address"},{"name":"to","type":"address","internalType":"address"},{"name":"value","type":"uint256","internalType":"uint256"}],"outputs":[{"name":"","type":"bool","internalType":"bool"}],"stateMutability":"nonpayable"},{"type":"function","name":"transferOwnership","inputs":[{"name":"newOwner","type":"address","internalType":"address"}],"outputs":[],"stateMutability":"nonpayable"},{"type":"function","name":"userDeposits","inputs":[{"name":"","type":"address","internalType":"address"}],"outputs":[{"name":"","type":"uint256","internalType":"uint256"}],"stateMutability":"view"},{"type":"function","name":"withdraw","inputs":[{"name":"shares","type":"uint256","internalType":"uint256"}],"outputs":[{"name":"amount","type":"uint256","internalType":"uint256"}],"stateMutability":"nonpayable"},{"type":"function","name":"withdraw","inputs":[{"name":"assets","type":"uint256","internalType":"uint256"},{"name":"receiver","type":"address","internalType":"address"},{"name":"owner","type":"address","internalType":"address"}],"outputs":[{"name":"","type":"uint256","internalType":"uint256"}],"stateMutability":"nonpayable"},{"type":"event","name":"Approval","inputs":[{"name":"owner","type":"address","indexed":true,"internalType":"address"},{"name":"spender","type":"address","indexed":true,"internalType":"address"},{"name":"value","type":"uint256","indexed":false,"internalType":"uint256"}],"anonymous":false},{"type":"event","name":"Deposit","inputs":[{"name":"sender","type":"address","indexed":true,"internalType":"address"},{"name":"owner","type":"address","indexed":true,"internalType":"address"},{"name":"assets","type":"uint256","indexed":false,"internalType":"uint256"},{"name":"shares","type":"uint256","indexed":false,"internalType":"uint256"}],"anonymous":false},{"type":"event","name":"Deposited","inputs":[{"name":"user","type":"address","indexed":true,"internalType":"address"},{"name":"amount","type":"uint256","indexed":false,"internalType":"uint256"},{"name":"shares","type":"uint256","indexed":false,"internalType":"uint256"}],"anonymous":false},{"type":"event","name":"EmergencyWithdrawal","inputs":[{"name":"user","type":"address","indexed":true,"internalType":"address"},{"name":"amount","type":"uint256","indexed":false,"internalType":"uint256"}],"anonymous":false},{"type":"event","name":"Harvested","inputs":[{"name":"profit","type":"uint256","indexed":false,"internalType":"uint256"},{"name":"fee","type":"uint256","indexed":false,"internalType":"uint256"}],"anonymous":false},{"type":"event","name":"OwnershipTransferred","inputs":[{"name":"previousOwner","type":"address","indexed":true,"internalType":"address"},{"name":"newOwner","type":"address","indexed":true,"internalType":"address"}],"anonymous":false},{"type":"event","name":"PerformanceFeeUpdated","inputs":[{"name":"oldFee","type":"uint256","indexed":false,"internalType":"uint256"},{"name":"newFee","type":"uint256","indexed":false,"internalType":"uint256"}],"anonymous":false},{"type":"event","name":"StrategyManagerUpdated","inputs":[{"name":"oldManager","type":"address","indexed":true,"internalType":"address"},{"name":"newManager","type":"address","indexed":true,"internalType":"address"}],"anonymous":false},{"type":"event","name":"Transfer","inputs":[{"name":"from","type":"address","indexed":true,"internalType":"address"},{"name":"to","type":"address","indexed":true,"internalType":"address"},{"name":"value","type":"uint256","indexed":false,"internalType":"uint256"}],"anonymous":false},{"type":"event","name":"Withdraw","inputs":[{"name":"sender","type":"address","indexed":true,"internalType":"address"},{"name":"receiver","type":"address","indexed":true,"internalType":"address"},{"name":"owner","type":"address","indexed":true,"internalType":"address"},{"name":"assets","type":"uint256","indexed":false,"internalType":"uint256"},{"name":"shares","type":"uint256","indexed":false,"internalType":"uint256"}],"anonymous":false},{"type":"event","name":"Withdrawn","inputs":[{"name":"user","type":"address","indexed":true,"internalType":"address"},{"name":"amount","type":"uint256","indexed":false,"internalType":"uint256"},{"name":"shares","type":"uint256","indexed":false,"internalType":"uint256"}],"anonymous":false},{"type":"error","name":"ERC20InsufficientAllowance","inputs":[{"name":"spender","type":"address","internalType":"address"},{"name":"allowance","type":"uint256","internalType":"uint256"},{"name":"needed","type":"uint256","internalType":"uint256"}]},{"type":"error","name":"ERC20InsufficientBalance","inputs":[{"name":"sender","type":"address","internalType":"address"},{"name":"balance","type":"uint256","internalType":"uint256"},{"name":"needed","type":"uint256","internalType":"uint256"}]},{"type":"error","name":"ERC20InvalidApprover","inputs":[{"name":"approver","type":"address","internalType":"address"}]},{"type":"error","name":"ERC20InvalidReceiver","inputs":[{"name":"receiver","type":"address","internalType":"address"}]},{"type":"error","name":"ERC20InvalidSender","inputs":[{"name":"sender","type":"address","internalType":"address"}]},{"type":"error","name":"ERC20InvalidSpender","inputs":[{"name":"spender","type":"address","internalType":"address"}]},{"type":"error","name":"ERC4626ExceededMaxDeposit","inputs":[{"name":"receiver","type":"address","internalType":"address"},{"name":"assets","type":"uint256","internalType":"uint256"},{"name":"max","type":"uint256","internalType":"uint256"}]},{"type":"error","name":"ERC4626ExceededMaxMint","inputs":[{"name":"receiver","type":"address","internalType":"address"},{"name":"shares","type":"uint256","internalType":"uint256"},{"name":"max","type":"uint256","internalType":"uint256"}]},{"type":"error","name":"ERC4626ExceededMaxRedeem","inputs":[{"name":"owner","type":"address","internalType":"address"},{"name":"shares","type":"uint256","internalType":"uint256"},{"name":"max","type":"uint256","internalType":"uint256"}]},{"type":"error","name":"ERC4626ExceededMaxWithdraw","inputs":[{"name":"owner","type":"address","internalType":"address"},{"name":"assets","type":"uint256","internalType":"uint256"},{"name":"max","type":"uint256","internalType":"uint256"}]},{"type":"error","name":"OwnableInvalidOwner","inputs":[{"name":"owner","type":"address","internalType":"address"}]},{"type":"error","name":"OwnableUnauthorizedAccount","inputs":[{"name":"account","type":"address","internalType":"address"}]},{"type":"error","name":"ReentrancyGuardReentrantCall","inputs":[]},{"type":"error","name":"SafeERC20FailedOperation","inputs":[{"name":"token","type":"address","internalType":"address"}]}],"bytecode":{"object":"0x60c060405260c860075534801562000015575f80fd5b50604051620021bc380380620021bc833981016040819052620000389162000269565b80826040518060400160405280600b81526020016a135a5b991e4815985d5b1d60aa1b8152506040518060400160405280600981526020016813525391164b55931560ba1b81525081600390816200009191906200033d565b506004620000a082826200033d565b5050505f80620000b6836200014260201b60201c565b9150915081620000c8576012620000ca565b805b60ff1660a05250506001600160a01b0390811660805281166200010657604051631e4fbdf760e01b81525f600482015260240160405180910390fd5b6200011181620001db565b5060017f9b779b17422d0df92223018b32b4d1fa46e071723d6817e2486d003becc55f005550504260095562000409565b5f80806200014f60405190565b6040805160048152602481019091526020810180516001600160e01b0390811663313ce56760e01b179091529192505f91829162000191918891906200022c16565b509092509050620001a183604052565b818015620001b0575060203d10155b8015620001be575060ff8111155b620001cb575f80620001cf565b6001815b94509450505050915091565b600580546001600160a01b038381166001600160a01b0319831681179093556040519116919082907f8be0079c531659141344cd1fd0a4f28419497f9722a3daafe3b4186f6b6457e0905f90a35050565b5f805f60405f855160208701885afa92505f51915060205190509250925092565b80516001600160a01b038116811462000264575f80fd5b919050565b5f80604083850312156200027b575f80fd5b62000286836200024d565b915062000296602084016200024d565b90509250929050565b634e487b7160e01b5f52604160045260245ffd5b600181811c90821680620002c857607f821691505b602082108103620002e757634e487b7160e01b5f52602260045260245ffd5b50919050565b601f8211156200033857805f5260205f20601f840160051c81016020851015620003145750805b601f840160051c820191505b8181101562000335575f815560010162000320565b50505b505050565b81516001600160401b038111156200035957620003596200029f565b62000371816200036a8454620002b3565b84620002ed565b602080601f831160018114620003a7575f84156200038f5750858301515b5f19600386901b1c1916600185901b17855562000401565b5f85815260208120601f198616915b82811015620003d757888601518255948401946001909101908401620003b6565b5085821015620003f557878501515f19600388901b60f8161c191681555b505060018460011b0185555b505050505050565b60805160a051611d63620004595f395f50505f818161036c0152818161058e015281816108e501528181610a1601528181610c190152818161103b0152818161165b01526116bb0152611d635ff3fe608060405234801561000f575f80fd5b5060043610610260575f3560e01c80635c9666461161014b578063b6b55f25116100bf578063ce96cb7711610084578063ce96cb7714610507578063d414e79d1461051a578063d905777e1461052d578063dd62ed3e14610540578063ef8b30f7146104f4578063f2fde38b14610578575f80fd5b8063b6b55f25146104c5578063b9d4e879146104d8578063ba087652146104e1578063c63d75b6146103b7578063c6e6f592146104f4575f80fd5b80638da5cb5b116101105780638da5cb5b1461046057806394bf804d1461047157806395d89b4114610484578063a9059cbb1461048c578063b3d7f6b91461049f578063b460af94146104b2575f80fd5b80635c966646146103f75780636e553f651461040a57806370897b231461041d57806370a0823114610430578063715018a614610458575f80fd5b8063313ce567116101e2578063402d267d116101a7578063402d267d146103b757806345f7f249146103cb5780634641257d146103d457806346fcff4c146103dc5780634cdad506146102945780635312ea8e146103e4575f80fd5b8063313ce5671461033357806331d7a26214610342578063373860821461035557806338d52e0f1461036a57806339b70e38146103a4575f80fd5b80630ba36dcd116102285780630ba36dcd146102dd57806318160ddd146102fc5780632257a7381461030457806323b872dd1461030d5780632e1a7d4d14610320575f80fd5b806301e1d1141461026457806306fdde031461027f57806307a2d13a14610294578063095ea7b3146102a75780630a28a477146102ca575b5f80fd5b61026c61058b565b6040519081526020015b60405180910390f35b61028761061a565b6040516102769190611924565b61026c6102a2366004611970565b6106aa565b6102ba6102b536600461199d565b6106bb565b6040519015158152602001610276565b61026c6102d8366004611970565b6106d2565b61026c6102eb3660046119c5565b600a6020525f908152604090205481565b60025461026c565b61026c60095481565b6102ba61031b3660046119de565b6106de565b61026c61032e366004611970565b610703565b60405160128152602001610276565b61026c6103503660046119c5565b6107ba565b610368610363366004611970565b61082f565b005b7f00000000000000000000000000000000000000000000000000000000000000005b6040516001600160a01b039091168152602001610276565b60065461038c906001600160a01b031681565b61026c6103c53660046119c5565b505f1990565b61026c60085481565b610368610994565b61026c610b1e565b61026c6103f2366004611970565b610b34565b6103686104053660046119c5565b610cf5565b61026c610418366004611a17565b610dae565b61036861042b366004611970565b610dc9565b61026c61043e3660046119c5565b6001600160a01b03165f9081526020819052604090205490565b610368610e64565b6005546001600160a01b031661038c565b61026c61047f366004611a17565b610e75565b610287610e90565b6102ba61049a36600461199d565b610e9f565b61026c6104ad366004611970565b610eac565b61026c6104c0366004611a41565b610eb8565b61026c6104d3366004611970565b610f0e565b61026c60075481565b61026c6104ef366004611a41565b610f81565b61026c610502366004611970565b610fce565b61026c6105153660046119c5565b610fd9565b610368610528366004611970565b610fe6565b61026c61053b3660046119c5565b611098565b61026c61054e366004611a7a565b6001600160a01b039182165f90815260016020908152604080832093909416825291909152205490565b6103686105863660046119c5565b6110b5565b5f7f00000000000000000000000000000000000000000000000000000000000000006040516370a0823160e01b81523060048201526001600160a01b0391909116906370a0823190602401602060405180830381865afa1580156105f1573d5f803e3d5ffd5b505050506040513d601f19601f820116820180604052508101906106159190611aa2565b905090565b60606003805461062990611ab9565b80601f016020809104026020016040519081016040528092919081815260200182805461065590611ab9565b80156106a05780601f10610677576101008083540402835291602001916106a0565b820191905f5260205f20905b81548152906001019060200180831161068357829003601f168201915b5050505050905090565b5f6106b5825f6110ef565b92915050565b5f336106c8818585611127565b5060019392505050565b5f6106b5826001611139565b5f336106eb858285611168565b6106f68585856111d1565b60019150505b9392505050565b5f61070c61122e565b610717823333610eb8565b335f908152600a6020526040902054909150811115610736575f610750565b335f908152600a6020526040902054610750908290611b05565b335f818152600a602090815260409182902093909355805184815292830185905290917f92ccf450a286a957af52509bc1c9939d1a6a481783e142e41e2499f0bb66ebc691015b60405180910390a26107b560015f80516020611d0e83398151915255565b919050565b6001600160a01b0381165f90815260208190526040812054805f036107e157505f92915050565b5f6107eb60025490565b9050805f036107fd57505f9392505050565b8060085461080961058b565b6108139190611b05565b61081d9084611b18565b6108279190611b43565b949350505050565b6006546001600160a01b031633146108625760405162461bcd60e51b815260040161085990611b56565b60405180910390fd5b61086a61122e565b60085461087561058b565b61087f9190611b05565b8111156108ce5760405162461bcd60e51b815260206004820152601e60248201527f4d696e64795661756c743a20696e73756666696369656e742066756e647300006044820152606401610859565b8060085f8282546108df9190611b97565b909155507f0000000000000000000000000000000000000000000000000000000000000000905060065460405163a9059cbb60e01b81526001600160a01b0391821660048201526024810184905291169063a9059cbb906044015b6020604051808303815f875af1158015610956573d5f803e3d5ffd5b505050506040513d601f19601f8201168201806040525081019061097a9190611baa565b5061099160015f80516020611d0e83398151915255565b50565b61099c61122e565b5f6109a561058b565b90505f6008546109b361058b565b6109bd9190611b05565b82116109c9575f6109e8565b6008546109d461058b565b6109de9190611b05565b6109e89083611b05565b90508015610b00575f61271060075483610a029190611b18565b610a0c9190611b43565b90508015610ac5577f00000000000000000000000000000000000000000000000000000000000000006001600160a01b031663a9059cbb610a556005546001600160a01b031690565b6040516001600160e01b031960e084901b1681526001600160a01b039091166004820152602481018490526044016020604051808303815f875af1158015610a9f573d5f803e3d5ffd5b505050506040513d601f19601f82011682018060405250810190610ac39190611baa565b505b60408051838152602081018390527ffa07446fad45314351eb89109a154880278451332bb87f1824d435fe58da5939910160405180910390a1505b505042600955610b1c60015f80516020611d0e83398151915255565b565b5f600854610b2a61058b565b6106159190611b05565b5f610b3d61122e565b335f90815260208190526040902054821115610b9b5760405162461bcd60e51b815260206004820152601f60248201527f4d696e64795661756c743a20696e73756666696369656e7420736861726573006044820152606401610859565b5f610ba560025490565b90505f8111610bee5760405162461bcd60e51b81526020600482015260156024820152744d696e64795661756c743a206e6f20737570706c7960581b6044820152606401610859565b80610bf761058b565b610c019085611b18565b610c0b9190611b43565b9150610c173384611249565b7f000000000000000000000000000000000000000000000000000000000000000060405163a9059cbb60e01b8152336004820152602481018490526001600160a01b03919091169063a9059cbb906044016020604051808303815f875af1158015610c84573d5f803e3d5ffd5b505050506040513d601f19601f82011682018060405250810190610ca89190611baa565b5060405182815233907f23d6711a1d031134a36921253c75aa59e967d38e369ac625992824315e204f209060200160405180910390a2506107b560015f80516020611d0e83398151915255565b610cfd611281565b6001600160a01b038116610d535760405162461bcd60e51b815260206004820152601860248201527f4d696e64795661756c743a207a65726f206164647265737300000000000000006044820152606401610859565b6006546040516001600160a01b038084169216907f154aa9849d4e1ab4c46e5c7f57df9550da10d7a2bc0ca47f40568a1ecbed5f01905f90a3600680546001600160a01b0319166001600160a01b0392909216919091179055565b5f5f195f610dbb85610fce565b9050610827338587846112ae565b610dd1611281565b6103e8811115610e235760405162461bcd60e51b815260206004820152601860248201527f4d696e64795661756c743a2066656520746f6f206869676800000000000000006044820152606401610859565b60075460408051918252602082018390527f607b1c943753982194530bf7133a5972ea2626e028005410efa54ab20035caf8910160405180910390a1600755565b610e6c611281565b610b1c5f61131e565b5f5f195f610e8285610eac565b9050610827338583886112ae565b60606004805461062990611ab9565b5f336106c88185856111d1565b5f6106b58260016110ef565b5f80610ec383610fd9565b905080851115610eec57828582604051633fa733bb60e21b815260040161085993929190611bc9565b5f610ef6866106d2565b9050610f05338686898561136f565b95945050505050565b5f610f1761122e565b610f218233610dae565b335f908152600a6020526040812080549293508492909190610f44908490611b97565b9091555050604080518381526020810183905233917f73a19dd210f1a7f902193214c0ee91dd35ee5b4d920cba8d519eca65a7b488ca9101610797565b5f80610f8c83611098565b905080851115610fb557828582604051632e52afbb60e21b815260040161085993929190611bc9565b5f610fbf866106aa565b9050610f05338686848a61136f565b5f6106b5825f611139565b5f6106b56102a283611098565b6006546001600160a01b031633146110105760405162461bcd60e51b815260040161085990611b56565b61101861122e565b806008541015611028575f611036565b806008546110369190611b05565b6008557f00000000000000000000000000000000000000000000000000000000000000006006546040516323b872dd60e01b81526001600160a01b039182166004820152306024820152604481018490529116906323b872dd9060640161093a565b6001600160a01b0381165f908152602081905260408120546106b5565b6110bd611281565b6001600160a01b0381166110e657604051631e4fbdf760e01b81525f6004820152602401610859565b6109918161131e565b5f6106fc6110fb61058b565b611106906001611b97565b6111115f600a611cca565b60025461111e9190611b97565b8591908561140e565b6111348383836001611450565b505050565b5f6106fc61114882600a611cca565b6002546111559190611b97565b61115d61058b565b61111e906001611b97565b6001600160a01b038381165f908152600160209081526040808320938616835292905220545f198110156111cb57818110156111bd57828183604051637dc7a0d960e11b815260040161085993929190611bc9565b6111cb84848484035f611450565b50505050565b6001600160a01b0383166111fa57604051634b637e8f60e11b81525f6004820152602401610859565b6001600160a01b0382166112235760405163ec442f0560e01b81525f6004820152602401610859565b611134838383611514565b611236611627565b60025f80516020611d0e83398151915255565b6001600160a01b03821661127257604051634b637e8f60e11b81525f6004820152602401610859565b61127d825f83611514565b5050565b6005546001600160a01b03163314610b1c5760405163118cdaa760e01b8152336004820152602401610859565b6112b88483611656565b6112c28382611682565b826001600160a01b0316846001600160a01b03167fdcbc1c05240f31ff3ad067ef1ee35ce4997762752e3a095284754544f4c709d78484604051611310929190918252602082015260400190565b60405180910390a350505050565b600580546001600160a01b038381166001600160a01b0319831681179093556040519116919082907f8be0079c531659141344cd1fd0a4f28419497f9722a3daafe3b4186f6b6457e0905f90a35050565b826001600160a01b0316856001600160a01b03161461139357611393838683611168565b61139d8382611249565b6113a784836116b6565b826001600160a01b0316846001600160a01b0316866001600160a01b03167ffbde797d201c681b91056529119e0b02407c7bb96a4a2c75c01fc9667232c8db85856040516113ff929190918252602082015260400190565b60405180910390a45050505050565b5f61143b61141b836116e1565b801561143657505f848061143157611431611b2f565b868809115b151590565b61144686868661170d565b610f059190611b97565b6001600160a01b0384166114795760405163e602df0560e01b81525f6004820152602401610859565b6001600160a01b0383166114a257604051634a1406b160e11b81525f6004820152602401610859565b6001600160a01b038085165f90815260016020908152604080832093871683529290522082905580156111cb57826001600160a01b0316846001600160a01b03167f8c5be1e5ebec7d5bd14f71427d1e84f3dd0314c0f7b2291e5b200ac8c7c3b9258460405161131091815260200190565b6001600160a01b03831661153e578060025f8282546115339190611b97565b9091555061159b9050565b6001600160a01b0383165f908152602081905260409020548181101561157d5783818360405163391434e360e21b815260040161085993929190611bc9565b6001600160a01b0384165f9081526020819052604090209082900390555b6001600160a01b0382166115b7576002805482900390556115d5565b6001600160a01b0382165f9081526020819052604090208054820190555b816001600160a01b0316836001600160a01b03167fddf252ad1be2c89b69c2b068fc378daa952ba7f163c4a11628f55a4df523b3ef8360405161161a91815260200190565b60405180910390a3505050565b5f80516020611d0e83398151915254600203610b1c57604051633ee5aeb560e01b815260040160405180910390fd5b61127d7f00000000000000000000000000000000000000000000000000000000000000008330846117bd565b6001600160a01b0382166116ab5760405163ec442f0560e01b81525f6004820152602401610859565b61127d5f8383611514565b61127d7f000000000000000000000000000000000000000000000000000000000000000083836117f3565b5f60028260038111156116f6576116f6611cd8565b6117009190611cec565b60ff166001149050919050565b5f805f61171a8686611828565b91509150815f0361173e5783818161173457611734611b2f565b04925050506106fc565b818411611755576117556003851502601118611844565b5f848688095f868103871696879004966002600389028118808a02820302808a02820302808a02820302808a02820302808a02820302808a02909103029181900381900460010185841190960395909502919093039390930492909217029150509392505050565b6117cb848484846001611855565b6111cb57604051635274afe760e01b81526001600160a01b0385166004820152602401610859565b61180083838360016118c2565b61113457604051635274afe760e01b81526001600160a01b0384166004820152602401610859565b5f805f1983850993909202808410938190039390930393915050565b634e487b715f52806020526024601cfd5b6040516323b872dd60e01b5f8181526001600160a01b038781166004528616602452604485905291602083606481808c5af1925060015f511483166118b15783831516156118a5573d5f823e3d81fd5b5f883b113d1516831692505b604052505f60605295945050505050565b60405163a9059cbb60e01b5f8181526001600160a01b038616600452602485905291602083604481808b5af1925060015f5114831661191857838315161561190c573d5f823e3d81fd5b5f873b113d1516831692505b60405250949350505050565b5f602080835283518060208501525f5b8181101561195057858101830151858201604001528201611934565b505f604082860101526040601f19601f8301168501019250505092915050565b5f60208284031215611980575f80fd5b5035919050565b80356001600160a01b03811681146107b5575f80fd5b5f80604083850312156119ae575f80fd5b6119b783611987565b946020939093013593505050565b5f602082840312156119d5575f80fd5b6106fc82611987565b5f805f606084860312156119f0575f80fd5b6119f984611987565b9250611a0760208501611987565b9150604084013590509250925092565b5f8060408385031215611a28575f80fd5b82359150611a3860208401611987565b90509250929050565b5f805f60608486031215611a53575f80fd5b83359250611a6360208501611987565b9150611a7160408501611987565b90509250925092565b5f8060408385031215611a8b575f80fd5b611a9483611987565b9150611a3860208401611987565b5f60208284031215611ab2575f80fd5b5051919050565b600181811c90821680611acd57607f821691505b602082108103611aeb57634e487b7160e01b5f52602260045260245ffd5b50919050565b634e487b7160e01b5f52601160045260245ffd5b818103818111156106b5576106b5611af1565b80820281158282048414176106b5576106b5611af1565b634e487b7160e01b5f52601260045260245ffd5b5f82611b5157611b51611b2f565b500490565b60208082526021908201527f4d696e64795661756c743a206f6e6c79207374726174656779206d616e6167656040820152603960f91b606082015260800190565b808201808211156106b5576106b5611af1565b5f60208284031215611bba575f80fd5b815180151581146106fc575f80fd5b6001600160a01b039390931683526020830191909152604082015260600190565b600181815b80851115611c2457815f1904821115611c0a57611c0a611af1565b80851615611c1757918102915b93841c9390800290611bef565b509250929050565b5f82611c3a575060016106b5565b81611c4657505f6106b5565b8160018114611c5c5760028114611c6657611c82565b60019150506106b5565b60ff841115611c7757611c77611af1565b50506001821b6106b5565b5060208310610133831016604e8410600b8410161715611ca5575081810a6106b5565b611caf8383611bea565b805f1904821115611cc257611cc2611af1565b029392505050565b5f6106fc60ff841683611c2c565b634e487b7160e01b5f52602160045260245ffd5b5f60ff831680611cfe57611cfe611b2f565b8060ff8416069150509291505056fe9b779b17422d0df92223018b32b4d1fa46e071723d6817e2486d003becc55f00a2646970667358221220500f9cf1d0631ff1c922261ab4c4d1c53077f2d1856a04920271ee6fec68feca64736f6c63430008180033","linkReferences":{}},"methodIdentifiers":{"allocateToStrategy(uint256)":"37386082","allowance(address,address)":"dd62ed3e","approve(address,uint256)":"095ea7b3","asset()":"38d52e0f","availableFunds()":"46fcff4c","balanceOf(address)":"70a08231","convertToAssets(uint256)":"07a2d13a","convertToShares(uint256)":"c6e6f592","decimals()":"313ce567","deposit(uint256)":"b6b55f25","deposit(uint256,address)":"6e553f65","emergencyWithdraw(uint256)":"5312ea8e","harvest()":"4641257d","lastHarvestTimestamp()":"2257a738","maxDeposit(address)":"402d267d","maxMint(address)":"c63d75b6","maxRedeem(address)":"d905777e","maxWithdraw(address)":"ce96cb77","mint(uint256,address)":"94bf804d","name()":"06fdde03","owner()":"8da5cb5b","pendingRewards(address)":"31d7a262","performanceFeeBps()":"b9d4e879","previewDeposit(uint256)":"ef8b30f7","previewMint(uint256)":"b3d7f6b9","previewRedeem(uint256)":"4cdad506","previewWithdraw(uint256)":"0a28a477","redeem(uint256,address,address)":"ba087652","renounceOwnership()":"715018a6","returnFromStrategy(uint256)":"d414e79d","setPerformanceFee(uint256)":"70897b23","setStrategyManager(address)":"5c966646","strategyManager()":"39b70e38","symbol()":"95d89b41","totalAllocated()":"45f7f249","totalAssets()":"01e1d114","totalSupply()":"18160ddd","transfer(address,uint256)":"a9059cbb","transferFrom(address,address,uint256)":"23b872dd","transferOwnership(address)":"f2fde38b","userDeposits(address)":"0ba36dcd","withdraw(uint256)":"2e1a7d4d","withdraw(uint256,address,address)":"b460af94"},"id":43}