{"abi":[{"type":"constructor","inputs":[{"name":"_underlyingToken","type":"address","internalType":"address"},{"name":"_initialOwner","type":"address","internalType":"address"}],"stateMutability":"nonpayable"},{"type":"function","name":"allocateToStrategy","inputs":[{"name":"amount","type":"uint256","internalType":"uint256"}],"outputs":[],"stateMutability":"nonpayable"},{"type":"function","name":"allowance","inputs":[{"name":"owner","type":"address","internalType":"address"},{"name":"spender","type":"address","internalType":"address"}],"outputs":[{"name":"","type":"uint256","internalType":"uint256"}],"stateMutability":"view"},{"type":"function","name":"approve","inputs":[{"name":"spender","type":"address","internalType":"address"},{"name":"value","type":"uint256","internalType":"uint256"}],"outputs":[{"name":"","type":"bool","internalType":"bool"}],"stateMutability":"nonpayable"},{"type":"function","name":"asset","inputs":[],"outputs":[{"name":"","type":"address","internalType":"address"}],"stateMutability":"view"},{"type":"function","name":"availableFunds","inputs":[],"outputs":[{"name":"","type":"uint256","internalType":"uint256"}],"stateMutability":"view"},{"type":"function","name":"balanceOf","inputs":[{"name":"account","type":"address","internalType":"address"}],"outputs":[{"name":"","type":"uint256","internalType":"uint256"}],"stateMutability":"view"},{"type":"function","name":"convertToAssets","inputs":[{"name":"shares","type":"uint256","internalType":"uint256"}],"outputs":[{"name":"","type":"uint256","internalType":"uint256"}],"stateMutability":"view"},{"type":"function","name":"convertToShares","inputs":[{"name":"assets","type":"uint256","internalType":"uint256"}],"outputs":[{"name":"","type":"uint256","internalType":"uint256"}],"stateMutability":"view"},{"type":"function","name":"decimals","inputs":[],"outputs":[{"name":"","type":"uint8","internalType":"uint8"}],"stateMutability":"view"},{"type":"function","name":"deposit","inputs":[{"name":"assets","type":"uint256","internalType":"uint256"},{"name":"receiver","type":"address","internalType":"address"}],"outputs":[{"name":"","type":"uint256","internalType":"uint256"}],"stateMutability":"nonpayable"},{"type":"function","name":"deposit","inputs":[{"name":"amount","type":"uint256","internalType":"uint256"}],"outputs":[{"name":"shares","type":"uint256","internalType":"uint256"}],"stateMutability":"nonpayable"},{"type":"function","name":"emergencyWithdraw","inputs":[{"name":"shares","type":"uint256","internalType":"uint256"}],"outputs":[{"name":"amount","type":"uint256","internalType":"uint256"}],"stateMutability":"nonpayable"},{"type":"function","name":"harvest","inputs":[],"outputs":[],"stateMutability":"nonpayable"},{"type":"function","name":"lastHarvestTimestamp","inputs":[],"outputs":[{"name":"","type":"uint256","internalType":"uint256"}],"stateMutability":"view"},{"type":"function","name":"maxDeposit","inputs":[{"name":"","type":"address","internalType":"address"}],"outputs":[{"name":"","type":"uint256","internalType":"uint256"}],"stateMutability":"view"},{"type":"function","name":"maxMint","inputs":[{"name":"","type":"address","internalType":"address"}],"outputs":[{"name":"","type":"uint256","internalType":"uint256"}],"stateMutability":"view"},{"type":"function","name":"maxRedeem","inputs":[{"name":"owner","type":"address","internalType":"address"}],"outputs":[{"name":"","type":"uint256","internalType":"uint256"}],"stateMutability":"view"},{"type":"function","name":"maxWithdraw","inputs":[{"name":"owner","type":"address","internalType":"address"}],"outputs":[{"name":"","type":"uint256","internalType":"uint256"}],"stateMutability":"view"},{"type":"function","name":"mint","inputs":[{"name":"shares","type":"uint256","internalType":"uint256"},{"name":"receiver","type":"address","internalType":"address"}],"outputs":[{"name":"","type":"uint256","internalType":"uint256"}],"stateMutability":"nonpayable"},{"type":"function","name":"name","inputs":[],"outputs":[{"name":"","type":"string","internalType":"string"}],"stateMutability":"view"},{"type":"function","name":"owner","inputs":[],"outputs":[{"name":"","type":"address","internalType":"address"}],"stateMutability":"view"},{"type":"function","name":"pendingRewards","inputs":[{"name":"user","type":"address","internalType":"address"}],"outputs":[{"name":"","type":"uint256","internalType":"uint256"}],"stateMutability":"view"},{"type":"function","name":"performanceFeeBps","inputs":[],"outputs":[{"name":"","type":"uint256","internalType":"uint256"}],"stateMutability":"view"},{"type":"function","name":"previewDeposit","inputs":[{"name":"assets","type":"uint256","internalType":"uint256"}],"outputs":[{"name":"","type":"uint256","internalType":"uint256"}],"stateMutability":"view"},{"type":"function","name":"previewMint","inputs":[{"name":"shares","type":"uint256","internalType":"uint256"}],"outputs":[{"name":"","type":"uint256","internalType":"uint256"}],"stateMutability":"view"},{"type":"function","name":"previewRedeem","inputs":[{"name":"shares","type":"uint256","internalType":"uint256"}],"outputs":[{"name":"","type":"uint256","internalType":"uint256"}],"stateMutability":"view"},{"type":"function","name":"previewWithdraw","inputs":[{"name":"assets","type":"uint256","internalType":"uint256"}],"outputs":[{"name":"","type":"uint256","internalType":"uint256"}],"stateMutability":"view"},{"type":"function","name":"redeem","inputs":[{"name":"shares","type":"uint256","internalType":"uint256"},{"name":"receiver","type":"address","internalType":"address"},{"name":"owner","type":"address","internalType":"address"}],"outputs":[{"name":"","type":"uint256","internalType":"uint256"}],"stateMutability":"nonpayable"},{"type":"function","name":"renounceOwnership","inputs":[],"outputs":[],"stateMutability":"nonpayable"},{"type":"function","name":"returnFromStrategy","inputs":[{"name":"amount","type":"uint256","internalType":"uint256"}],"outputs":[],"stateMutability":"nonpayable"},{"type":"function","name":"setPerformanceFee","inputs":[{"name":"_feeBps","type":"uint256","internalType":"uint256"}],"outputs":[],"stateMutability":"nonpayable"},{"type":"function","name":"setStrategyManager","inputs":[{"name":"_strategyManager","type":"address","internalType":"address"}],"outputs":[],"stateMutability":"nonpayable"},{"type":"function","name":"strategyManager","inputs":[],"outputs":[{"name":"","type":"address","internalType":"address"}],"stateMutability":"view"},{"type":"function","name":"symbol","inputs":[],"outputs":[{"name":"","type":"string","internalType":"string"}],"stateMutability":"view"},{"type":"function","name":"totalAllocated","inputs":[],"outputs":[{"name":"","type":"uint256","internalType":"uint256"}],"stateMutability":"view"},{"type":"function","name":"totalAssets","inputs":[],"outputs":[{"name":"","type":"uint256","internalType":"uint256"}],"stateMutability":"view"},{"type":"function","name":"totalSupply","inputs":[],"outputs":[{"name":"","type":"uint256","internalType":"uint256"}],"stateMutability":"view"},{"type":"function","name":"transfer","inputs":[{"name":"to","type":"address","internalType":"address"},{"name":"value","type":"uint256","internalType":"uint256"}],"outputs":[{"name":"","type":"bool","internalType":"bool"}],"stateMutability":"nonpayable"},{"type":"function","name":"transferFrom","inputs":[{"name":"from","type":"address","internalType":"address"},{"name":"to","type":"address","internalType":"address"},{"name":"value","type":"uint256","internalType":"uint256"}],"outputs":[{"name":"","type":"bool","internalType":"bool"}],"stateMutability":"nonpayable"},{"type":"function","name":"transferOwnership","inputs":[{"name":"newOwner","type":"address","internalType":"address"}],"outputs":[],"stateMutability":"nonpayable"},{"type":"function","name":"userDeposits","inputs":[{"name":"","type":"address","internalType":"address"}],"outputs":[{"name":"","type":"uint256","internalType":"uint256"}],"stateMutability":"view"},{"type":"function","name":"withdraw","inputs":[{"name":"shares","type":"uint256","internalType":"uint256"}],"outputs":[{"name":"amount","type":"uint256","internalType":"uint256"}],"stateMutability":"nonpayable"},{"type":"function","name":"withdraw","inputs":[{"name":"assets","type":"uint256","internalType":"uint256"},{"name":"receiver","type":"address","internalType":"address"},{"name":"owner","type":"address","internalType":"address"}],"outputs":[{"name":"","type":"uint256","internalType":"uint256"}],"stateMutability":"nonpayable"},{"type":"event","name":"Approval","inputs":[{"name":"owner","type":"address","indexed":true,"internalType":"address"},{"name":"spender","type":"address","indexed":true,"internalType":"address"},{"name":"value","type":"uint256","indexed":false,"internalType":"uint256"}],"anonymous":false},{"type":"event","name":"Deposit","inputs":[{"name":"sender","type":"address","indexed":true,"internalType":"address"},{"name":"owner","type":"address","indexed":true,"internalType":"address"},{"name":"assets","type":"uint256","indexed":false,"internalType":"uint256"},{"name":"shares","type":"uint256","indexed":false,"internalType":"uint256"}],"anonymous":false},{"type":"event","name":"Deposited","inputs":[{"name":"user","type":"address","indexed":true,"internalType":"address"},{"name":"amount","type":"uint256","indexed":false,"internalType":"uint256"},{"name":"shares","type":"uint256","indexed":false,"internalType":"uint256"}],"anonymous":false},{"type":"event","name":"EmergencyWithdrawal","inputs":[{"name":"user","type":"address","indexed":true,"internalType":"address"},{"name":"amount","type":"uint256","indexed":false,"internalType":"uint256"}],"anonymous":false},{"type":"event","name":"Harvested","inputs":[{"name":"profit","type":"uint256","indexed":false,"internalType":"uint256"},{"name":"fee","type":"uint256","indexed":false,"internalType":"uint256"}],"anonymous":false},{"type":"event","name":"OwnershipTransferred","inputs":[{"name":"previousOwner","type":"address","indexed":true,"internalType":"address"},{"name":"newOwner","type":"address","indexed":true,"internalType":"address"}],"anonymous":false},{"type":"event","name":"PerformanceFeeUpdated","inputs":[{"name":"oldFee","type":"uint256","indexed":false,"internalType":"uint256"},{"name":"newFee","type":"uint256","indexed":false,"internalType":"uint256"}],"anonymous":false},{"type":"event","name":"StrategyManagerUpdated","inputs":[{"name":"oldManager","type":"address","indexed":true,"internalType":"address"},{"name":"newManager","type":"address","indexed":true,"internalType":"address"}],"anonymous":false},{"type":"event","name":"Transfer","inputs":[{"name":"from","type":"address","indexed":true,"internalType":"address"},{"name":"to","type":"address","indexed":true,"internalType":"address"},{"name":"value","type":"uint256","indexed":false,"internalType":"uint256"}],"anonymous":false},{"type":"event","name":"Withdraw","inputs":[{"name":"sender","type":"address","indexed":true,"internalType":"address"},{"name":"receiver","type":"address","indexed":true,"internalType":"address"},{"name":"owner","type":"address","indexed":true,"internalType":"address"},{"name":"assets","type":"uint256","indexed":false,"internalType":"uint256"},{"name":"shares","type":"uint256","indexed":false,"internalType":"uint256"}],"anonymous":false},{"type":"event","name":"Withdrawn","inputs":[{"name":"user","type":"address","indexed":true,"internalType":"address"},{"name":"amount","type":"uint256","indexed":false,"internalType":"uint256"},{"name":"shares","type":"uint256","indexed":false,"internalType":"uint256"}],"anonymous":false},{"type":"error","name":"ERC20InsufficientAllowance","inputs":[{"name":"spender","type":"address","internalType":"address"},{"name":"allowance","type":"uint256","internalType":"uint256"},{"name":"needed","type":"uint256","internalType":"uint256"}]},{"type":"error","name":"ERC20InsufficientBalance","inputs":[{"name":"sender","type":"address","internalType":"address"},{"name":"balance","type":"uint256","internalType":"uint256"},{"name":"needed","type":"uint256","internalType":"uint256"}]},{"type":"error","name":"ERC20InvalidApprover","inputs":[{"name":"approver","type":"address","internalType":"address"}]},{"type":"error","name":"ERC20InvalidReceiver","inputs":[{"name":"receiver","type":"address","internalType":"address"}]},{"type":"error","name":"ERC20InvalidSender","inputs":[{"name":"sender","type":"address","internalType":"address"}]},{"type":"error","name":"ERC20InvalidSpender","inputs":[{"name":"spender","type":"address","internalType":"address"}]},{"type":"error","name":"ERC4626ExceededMaxDeposit","inputs":[{"name":"receiver","type":"address","internalType":"address"},{"name":"assets","type":"uint256","internalType":"uint256"},{"name":"max","type":"uint256","internalType":"uint256"}]},{"type":"error","name":"ERC4626ExceededMaxMint","inputs":[{"name":"receiver","type":"address","internalType":"address"},{"name":"shares","type":"uint256","internalType":"uint256"},{"name":"max","type":"uint256","internalType":"uint256"}]},{"type":"error","name":"ERC4626ExceededMaxRedeem","inputs":[{"name":"owner","type":"address","internalType":"address"},{"name":"shares","type":"uint256","internalType":"uint256"},{"name":"max","type":"uint256","internalType":"uint256"}]},{"type":"error","name":"ERC4626ExceededMaxWithdraw","inputs":[{"name":"owner","type":"address","internalType":"address"},{"name":"assets","type":"uint256","internalType":"uint256"},{"name":"max","type":"uint256","internalType":"uint256"}]},{"type":"error","name":"OwnableInvalidOwner","inputs":[{"name":"owner","type":"address","internalType":"address"}]},{"type":"error","name":"OwnableUnauthorizedAccount","inputs":[{"name":"account","type":"address","internalType":"address"}]},{"type":"error","name":"ReentrancyGuardReentrantCall","inputs":[]},{"type":"error","name":"SafeERC20FailedOperation","inputs":[{"name":"token","type":"address","internalType":"address"}]}],"bytecode":{"object":"0x60c060405260c860075534801562000015575f80fd5b506040516200221738038062002217833981016040819052620000389162000269565b80826040518060400160405280600b81526020016a135a5b991e4815985d5b1d60aa1b8152506040518060400160405280600981526020016813525391164b55931560ba1b81525081600390816200009191906200033d565b506004620000a082826200033d565b5050505f80620000b6836200014260201b60201c565b9150915081620000c8576012620000ca565b805b60ff1660a05250506001600160a01b0390811660805281166200010657604051631e4fbdf760e01b81525f600482015260240160405180910390fd5b6200011181620001db565b5060017f9b779b17422d0df92223018b32b4d1fa46e071723d6817e2486d003becc55f005550504260095562000409565b5f80806200014f60405190565b6040805160048152602481019091526020810180516001600160e01b0390811663313ce56760e01b179091529192505f91829162000191918891906200022c16565b509092509050620001a183604052565b818015620001b0575060203d10155b8015620001be575060ff8111155b620001cb575f80620001cf565b6001815b94509450505050915091565b600580546001600160a01b038381166001600160a01b0319831681179093556040519116919082907f8be0079c531659141344cd1fd0a4f28419497f9722a3daafe3b4186f6b6457e0905f90a35050565b5f805f60405f855160208701885afa92505f51915060205190509250925092565b80516001600160a01b038116811462000264575f80fd5b919050565b5f80604083850312156200027b575f80fd5b62000286836200024d565b915062000296602084016200024d565b90509250929050565b634e487b7160e01b5f52604160045260245ffd5b600181811c90821680620002c857607f821691505b602082108103620002e757634e487b7160e01b5f52602260045260245ffd5b50919050565b601f8211156200033857805f5260205f20601f840160051c81016020851015620003145750805b601f840160051c820191505b8181101562000335575f815560010162000320565b50505b505050565b81516001600160401b038111156200035957620003596200029f565b62000371816200036a8454620002b3565b84620002ed565b602080601f831160018114620003a7575f84156200038f5750858301515b5f19600386901b1c1916600185901b17855562000401565b5f85815260208120601f198616915b82811015620003d757888601518255948401946001909101908401620003b6565b5085821015620003f557878501515f19600388901b60f8161c191681555b505060018460011b0185555b505050505050565b60805160a051611dbb6200045c5f395f61126401525f818161037701528181610599015281816108f901528181610a2a01528181610c2d0152818161104f0152818161169a01526116fa0152611dbb5ff3fe608060405234801561000f575f80fd5b5060043610610260575f3560e01c80635c9666461161014b578063b6b55f25116100bf578063ce96cb7711610084578063ce96cb7714610512578063d414e79d14610525578063d905777e14610538578063dd62ed3e1461054b578063ef8b30f7146104ff578063f2fde38b14610583575f80fd5b8063b6b55f25146104d0578063b9d4e879146104e3578063ba087652146104ec578063c63d75b6146103c2578063c6e6f592146104ff575f80fd5b80638da5cb5b116101105780638da5cb5b1461046b57806394bf804d1461047c57806395d89b411461048f578063a9059cbb14610497578063b3d7f6b9146104aa578063b460af94146104bd575f80fd5b80635c966646146104025780636e553f651461041557806370897b231461042857806370a082311461043b578063715018a614610463575f80fd5b8063313ce567116101e2578063402d267d116101a7578063402d267d146103c257806345f7f249146103d65780634641257d146103df57806346fcff4c146103e75780634cdad506146102945780635312ea8e146103ef575f80fd5b8063313ce5671461033357806331d7a2621461034d578063373860821461036057806338d52e0f1461037557806339b70e38146103af575f80fd5b80630ba36dcd116102285780630ba36dcd146102dd57806318160ddd146102fc5780632257a7381461030457806323b872dd1461030d5780632e1a7d4d14610320575f80fd5b806301e1d1141461026457806306fdde031461027f57806307a2d13a14610294578063095ea7b3146102a75780630a28a477146102ca575b5f80fd5b61026c610596565b6040519081526020015b60405180910390f35b610287610625565b6040516102769190611963565b61026c6102a23660046119af565b6106b5565b6102ba6102b53660046119dc565b6106c6565b6040519015158152602001610276565b61026c6102d83660046119af565b6106dd565b61026c6102eb366004611a04565b600a6020525f908152604090205481565b60025461026c565b61026c60095481565b6102ba61031b366004611a1d565b6106e9565b61026c61032e3660046119af565b61070e565b61033b6107c5565b60405160ff9091168152602001610276565b61026c61035b366004611a04565b6107ce565b61037361036e3660046119af565b610843565b005b7f00000000000000000000000000000000000000000000000000000000000000005b6040516001600160a01b039091168152602001610276565b600654610397906001600160a01b031681565b61026c6103d0366004611a04565b505f1990565b61026c60085481565b6103736109a8565b61026c610b32565b61026c6103fd3660046119af565b610b48565b610373610410366004611a04565b610d09565b61026c610423366004611a56565b610dc2565b6103736104363660046119af565b610ddd565b61026c610449366004611a04565b6001600160a01b03165f9081526020819052604090205490565b610373610e78565b6005546001600160a01b0316610397565b61026c61048a366004611a56565b610e89565b610287610ea4565b6102ba6104a53660046119dc565b610eb3565b61026c6104b83660046119af565b610ec0565b61026c6104cb366004611a80565b610ecc565b61026c6104de3660046119af565b610f22565b61026c60075481565b61026c6104fa366004611a80565b610f95565b61026c61050d3660046119af565b610fe2565b61026c610520366004611a04565b610fed565b6103736105333660046119af565b610ffa565b61026c610546366004611a04565b6110ac565b61026c610559366004611ab9565b6001600160a01b039182165f90815260016020908152604080832093909416825291909152205490565b610373610591366004611a04565b6110c9565b5f7f00000000000000000000000000000000000000000000000000000000000000006040516370a0823160e01b81523060048201526001600160a01b0391909116906370a0823190602401602060405180830381865afa1580156105fc573d5f803e3d5ffd5b505050506040513d601f19601f820116820180604052508101906106209190611ae1565b905090565b60606003805461063490611af8565b80601f016020809104026020016040519081016040528092919081815260200182805461066090611af8565b80156106ab5780601f10610682576101008083540402835291602001916106ab565b820191905f5260205f20905b81548152906001019060200180831161068e57829003601f168201915b5050505050905090565b5f6106c0825f611103565b92915050565b5f336106d381858561113b565b5060019392505050565b5f6106c082600161114d565b5f336106f685828561117c565b6107018585856111e5565b60019150505b9392505050565b5f610717611242565b610722823333610ecc565b335f908152600a6020526040902054909150811115610741575f61075b565b335f908152600a602052604090205461075b908290611b44565b335f818152600a602090815260409182902093909355805184815292830185905290917f92ccf450a286a957af52509bc1c9939d1a6a481783e142e41e2499f0bb66ebc691015b60405180910390a26107c060015f80516020611d6683398151915255565b919050565b5f61062061125d565b6001600160a01b0381165f90815260208190526040812054805f036107f557505f92915050565b5f6107ff60025490565b9050805f0361081157505f9392505050565b8060085461081d610596565b6108279190611b44565b6108319084611b57565b61083b9190611b82565b949350505050565b6006546001600160a01b031633146108765760405162461bcd60e51b815260040161086d90611b95565b60405180910390fd5b61087e611242565b600854610889610596565b6108939190611b44565b8111156108e25760405162461bcd60e51b815260206004820152601e60248201527f4d696e64795661756c743a20696e73756666696369656e742066756e64730000604482015260640161086d565b8060085f8282546108f39190611bd6565b909155507f0000000000000000000000000000000000000000000000000000000000000000905060065460405163a9059cbb60e01b81526001600160a01b0391821660048201526024810184905291169063a9059cbb906044015b6020604051808303815f875af115801561096a573d5f803e3d5ffd5b505050506040513d601f19601f8201168201806040525081019061098e9190611be9565b506109a560015f80516020611d6683398151915255565b50565b6109b0611242565b5f6109b9610596565b90505f6008546109c7610596565b6109d19190611b44565b82116109dd575f6109fc565b6008546109e8610596565b6109f29190611b44565b6109fc9083611b44565b90508015610b14575f61271060075483610a169190611b57565b610a209190611b82565b90508015610ad9577f00000000000000000000000000000000000000000000000000000000000000006001600160a01b031663a9059cbb610a696005546001600160a01b031690565b6040516001600160e01b031960e084901b1681526001600160a01b039091166004820152602481018490526044016020604051808303815f875af1158015610ab3573d5f803e3d5ffd5b505050506040513d601f19601f82011682018060405250810190610ad79190611be9565b505b60408051838152602081018390527ffa07446fad45314351eb89109a154880278451332bb87f1824d435fe58da5939910160405180910390a1505b505042600955610b3060015f80516020611d6683398151915255565b565b5f600854610b3e610596565b6106209190611b44565b5f610b51611242565b335f90815260208190526040902054821115610baf5760405162461bcd60e51b815260206004820152601f60248201527f4d696e64795661756c743a20696e73756666696369656e742073686172657300604482015260640161086d565b5f610bb960025490565b90505f8111610c025760405162461bcd60e51b81526020600482015260156024820152744d696e64795661756c743a206e6f20737570706c7960581b604482015260640161086d565b80610c0b610596565b610c159085611b57565b610c1f9190611b82565b9150610c2b3384611288565b7f000000000000000000000000000000000000000000000000000000000000000060405163a9059cbb60e01b8152336004820152602481018490526001600160a01b03919091169063a9059cbb906044016020604051808303815f875af1158015610c98573d5f803e3d5ffd5b505050506040513d601f19601f82011682018060405250810190610cbc9190611be9565b5060405182815233907f23d6711a1d031134a36921253c75aa59e967d38e369ac625992824315e204f209060200160405180910390a2506107c060015f80516020611d6683398151915255565b610d116112c0565b6001600160a01b038116610d675760405162461bcd60e51b815260206004820152601860248201527f4d696e64795661756c743a207a65726f20616464726573730000000000000000604482015260640161086d565b6006546040516001600160a01b038084169216907f154aa9849d4e1ab4c46e5c7f57df9550da10d7a2bc0ca47f40568a1ecbed5f01905f90a3600680546001600160a01b0319166001600160a01b0392909216919091179055565b5f5f195f610dcf85610fe2565b905061083b338587846112ed565b610de56112c0565b6103e8811115610e375760405162461bcd60e51b815260206004820152601860248201527f4d696e64795661756c743a2066656520746f6f20686967680000000000000000604482015260640161086d565b60075460408051918252602082018390527f607b1c943753982194530bf7133a5972ea2626e028005410efa54ab20035caf8910160405180910390a1600755565b610e806112c0565b610b305f61135d565b5f5f195f610e9685610ec0565b905061083b338583886112ed565b60606004805461063490611af8565b5f336106d38185856111e5565b5f6106c0826001611103565b5f80610ed783610fed565b905080851115610f0057828582604051633fa733bb60e21b815260040161086d93929190611c08565b5f610f0a866106dd565b9050610f1933868689856113ae565b95945050505050565b5f610f2b611242565b610f358233610dc2565b335f908152600a6020526040812080549293508492909190610f58908490611bd6565b9091555050604080518381526020810183905233917f73a19dd210f1a7f902193214c0ee91dd35ee5b4d920cba8d519eca65a7b488ca91016107a2565b5f80610fa0836110ac565b905080851115610fc957828582604051632e52afbb60e21b815260040161086d93929190611c08565b5f610fd3866106b5565b9050610f19338686848a6113ae565b5f6106c0825f61114d565b5f6106c06102a2836110ac565b6006546001600160a01b031633146110245760405162461bcd60e51b815260040161086d90611b95565b61102c611242565b80600854101561103c575f61104a565b8060085461104a9190611b44565b6008557f00000000000000000000000000000000000000000000000000000000000000006006546040516323b872dd60e01b81526001600160a01b039182166004820152306024820152604481018490529116906323b872dd9060640161094e565b6001600160a01b0381165f908152602081905260408120546106c0565b6110d16112c0565b6001600160a01b0381166110fa57604051631e4fbdf760e01b81525f600482015260240161086d565b6109a58161135d565b5f61070761110f610596565b61111a906001611bd6565b6111255f600a611d09565b6002546111329190611bd6565b8591908561144d565b611148838383600161148f565b505050565b5f61070761115c82600a611d09565b6002546111699190611bd6565b611171610596565b611132906001611bd6565b6001600160a01b038381165f908152600160209081526040808320938616835292905220545f198110156111df57818110156111d157828183604051637dc7a0d960e11b815260040161086d93929190611c08565b6111df84848484035f61148f565b50505050565b6001600160a01b03831661120e57604051634b637e8f60e11b81525f600482015260240161086d565b6001600160a01b0382166112375760405163ec442f0560e01b81525f600482015260240161086d565b611148838383611553565b61124a611666565b60025f80516020611d6683398151915255565b5f610620817f0000000000000000000000000000000000000000000000000000000000000000611d17565b6001600160a01b0382166112b157604051634b637e8f60e11b81525f600482015260240161086d565b6112bc825f83611553565b5050565b6005546001600160a01b03163314610b305760405163118cdaa760e01b815233600482015260240161086d565b6112f78483611695565b61130183826116c1565b826001600160a01b0316846001600160a01b03167fdcbc1c05240f31ff3ad067ef1ee35ce4997762752e3a095284754544f4c709d7848460405161134f929190918252602082015260400190565b60405180910390a350505050565b600580546001600160a01b038381166001600160a01b0319831681179093556040519116919082907f8be0079c531659141344cd1fd0a4f28419497f9722a3daafe3b4186f6b6457e0905f90a35050565b826001600160a01b0316856001600160a01b0316146113d2576113d283868361117c565b6113dc8382611288565b6113e684836116f5565b826001600160a01b0316846001600160a01b0316866001600160a01b03167ffbde797d201c681b91056529119e0b02407c7bb96a4a2c75c01fc9667232c8db858560405161143e929190918252602082015260400190565b60405180910390a45050505050565b5f61147a61145a83611720565b801561147557505f848061147057611470611b6e565b868809115b151590565b61148586868661174c565b610f199190611bd6565b6001600160a01b0384166114b85760405163e602df0560e01b81525f600482015260240161086d565b6001600160a01b0383166114e157604051634a1406b160e11b81525f600482015260240161086d565b6001600160a01b038085165f90815260016020908152604080832093871683529290522082905580156111df57826001600160a01b0316846001600160a01b03167f8c5be1e5ebec7d5bd14f71427d1e84f3dd0314c0f7b2291e5b200ac8c7c3b9258460405161134f91815260200190565b6001600160a01b03831661157d578060025f8282546115729190611bd6565b909155506115da9050565b6001600160a01b0383165f90815260208190526040902054818110156115bc5783818360405163391434e360e21b815260040161086d93929190611c08565b6001600160a01b0384165f9081526020819052604090209082900390555b6001600160a01b0382166115f657600280548290039055611614565b6001600160a01b0382165f9081526020819052604090208054820190555b816001600160a01b0316836001600160a01b03167fddf252ad1be2c89b69c2b068fc378daa952ba7f163c4a11628f55a4df523b3ef8360405161165991815260200190565b60405180910390a3505050565b5f80516020611d6683398151915254600203610b3057604051633ee5aeb560e01b815260040160405180910390fd5b6112bc7f00000000000000000000000000000000000000000000000000000000000000008330846117fc565b6001600160a01b0382166116ea5760405163ec442f0560e01b81525f600482015260240161086d565b6112bc5f8383611553565b6112bc7f00000000000000000000000000000000000000000000000000000000000000008383611832565b5f600282600381111561173557611735611d30565b61173f9190611d44565b60ff166001149050919050565b5f805f6117598686611867565b91509150815f0361177d5783818161177357611773611b6e565b0492505050610707565b818411611794576117946003851502601118611883565b5f848688095f868103871696879004966002600389028118808a02820302808a02820302808a02820302808a02820302808a02820302808a02909103029181900381900460010185841190960395909502919093039390930492909217029150509392505050565b61180a848484846001611894565b6111df57604051635274afe760e01b81526001600160a01b038516600482015260240161086d565b61183f8383836001611901565b61114857604051635274afe760e01b81526001600160a01b038416600482015260240161086d565b5f805f1983850993909202808410938190039390930393915050565b634e487b715f52806020526024601cfd5b6040516323b872dd60e01b5f8181526001600160a01b038781166004528616602452604485905291602083606481808c5af1925060015f511483166118f05783831516156118e4573d5f823e3d81fd5b5f883b113d1516831692505b604052505f60605295945050505050565b60405163a9059cbb60e01b5f8181526001600160a01b038616600452602485905291602083604481808b5af1925060015f5114831661195757838315161561194b573d5f823e3d81fd5b5f873b113d1516831692505b60405250949350505050565b5f602080835283518060208501525f5b8181101561198f57858101830151858201604001528201611973565b505f604082860101526040601f19601f8301168501019250505092915050565b5f602082840312156119bf575f80fd5b5035919050565b80356001600160a01b03811681146107c0575f80fd5b5f80604083850312156119ed575f80fd5b6119f6836119c6565b946020939093013593505050565b5f60208284031215611a14575f80fd5b610707826119c6565b5f805f60608486031215611a2f575f80fd5b611a38846119c6565b9250611a46602085016119c6565b9150604084013590509250925092565b5f8060408385031215611a67575f80fd5b82359150611a77602084016119c6565b90509250929050565b5f805f60608486031215611a92575f80fd5b83359250611aa2602085016119c6565b9150611ab0604085016119c6565b90509250925092565b5f8060408385031215611aca575f80fd5b611ad3836119c6565b9150611a77602084016119c6565b5f60208284031215611af1575f80fd5b5051919050565b600181811c90821680611b0c57607f821691505b602082108103611b2a57634e487b7160e01b5f52602260045260245ffd5b50919050565b634e487b7160e01b5f52601160045260245ffd5b818103818111156106c0576106c0611b30565b80820281158282048414176106c0576106c0611b30565b634e487b7160e01b5f52601260045260245ffd5b5f82611b9057611b90611b6e565b500490565b60208082526021908201527f4d696e64795661756c743a206f6e6c79207374726174656779206d616e6167656040820152603960f91b606082015260800190565b808201808211156106c0576106c0611b30565b5f60208284031215611bf9575f80fd5b81518015158114610707575f80fd5b6001600160a01b039390931683526020830191909152604082015260600190565b600181815b80851115611c6357815f1904821115611c4957611c49611b30565b80851615611c5657918102915b93841c9390800290611c2e565b509250929050565b5f82611c79575060016106c0565b81611c8557505f6106c0565b8160018114611c9b5760028114611ca557611cc1565b60019150506106c0565b60ff841115611cb657611cb6611b30565b50506001821b6106c0565b5060208310610133831016604e8410600b8410161715611ce4575081810a6106c0565b611cee8383611c29565b805f1904821115611d0157611d01611b30565b029392505050565b5f61070760ff841683611c6b565b60ff81811683821601908111156106c0576106c0611b30565b634e487b7160e01b5f52602160045260245ffd5b5f60ff831680611d5657611d56611b6e565b8060ff8416069150509291505056fe9b779b17422d0df92223018b32b4d1fa46e071723d6817e2486d003becc55f00a264697066735822122059e01f1087d736e0c4f1dd902850e3b1b037824238caff1143b6e249eb199d5f64736f6c63430008180033","linkReferences":{}},"methodIdentifiers":{"allocateToStrategy(uint256)":"37386082","allowance(address,address)":"dd62ed3e","approve(address,uint256)":"095ea7b3","asset()":"38d52e0f","availableFunds()":"46fcff4c","balanceOf(address)":"70a08231","convertToAssets(uint256)":"07a2d13a","convertToShares(uint256)":"c6e6f592","decimals()":"313ce567","deposit(uint256)":"b6b55f25","deposit(uint256,address)":"6e553f65","emergencyWithdraw(uint256)":"5312ea8e","harvest()":"4641257d","lastHarvestTimestamp()":"2257a738","maxDeposit(address)":"402d267d","maxMint(address)":"c63d75b6","maxRedeem(address)":"d905777e","maxWithdraw(address)":"ce96cb77","mint(uint256,address)":"94bf804d","name()":"06fdde03","owner()":"8da5cb5b","pendingRewards(address)":"31d7a262","performanceFeeBps()":"b9d4e879","previewDeposit(uint256)":"ef8b30f7","previewMint(uint256)":"b3d7f6b9","previewRedeem(uint256)":"4cdad506","previewWithdraw(uint256)":"0a28a477","redeem(uint256,address,address)":"ba087652","renounceOwnership()":"715018a6","returnFromStrategy(uint256)":"d414e79d","setPerformanceFee(uint256)":"70897b23","setStrategyManager(address)":"5c966646","strategyManager()":"39b70e38","symbol()":"95d89b41","totalAllocated()":"45f7f249","totalAssets()":"01e1d114","totalSupply()":"18160ddd","transfer(address,uint256)":"a9059cbb","transferFrom(address,address,uint256)":"23b872dd","transferOwnership(address)":"f2fde38b","userDeposits(address)":"0ba36dcd","withdraw(uint256)":"2e1a7d4d","withdraw(uint256,address,address)":"b460af94"},"id":27}