{"abi":[{"type":"constructor","inputs":[{"name":"_initialOwner","type":"address","internalType":"address"}],"stateMutability":"nonpayable"},{"type":"function","name":"aiOperator","inputs":[],"outputs":[{"name":"","type":"address","internalType":"address"}],"stateMutability":"view"},{"type":"function","name":"bridgeContract","inputs":[],"outputs":[{"name":"","type":"address","internalType":"address"}],"stateMutability":"view"},{"type":"function","name":"bridgeFeeBps","inputs":[],"outputs":[{"name":"","type":"uint256","internalType":"uint256"}],"stateMutability":"view"},{"type":"function","name":"bridgeToRollup","inputs":[{"name":"amount","type":"uint256","internalType":"uint256"},{"name":"destChainId","type":"uint256","internalType":"uint256"},{"name":"destStrategy","type":"address","internalType":"address"}],"outputs":[{"name":"","type":"bytes32","internalType":"bytes32"}],"stateMutability":"nonpayable"},{"type":"function","name":"calculateBridgeFee","inputs":[{"name":"amount","type":"uint256","internalType":"uint256"}],"outputs":[{"name":"","type":"uint256","internalType":"uint256"}],"stateMutability":"view"},{"type":"function","name":"confirmTransfer","inputs":[{"name":"transferId","type":"bytes32","internalType":"bytes32"},{"name":"destTxHash","type":"bytes32","internalType":"bytes32"}],"outputs":[],"stateMutability":"nonpayable"},{"type":"function","name":"failTransfer","inputs":[{"name":"transferId","type":"bytes32","internalType":"bytes32"},{"name":"reason","type":"string","internalType":"string"}],"outputs":[],"stateMutability":"nonpayable"},{"type":"function","name":"getPendingTransfers","inputs":[],"outputs":[{"name":"","type":"bytes32[]","internalType":"bytes32[]"}],"stateMutability":"view"},{"type":"function","name":"getTransfer","inputs":[{"name":"transferId","type":"bytes32","internalType":"bytes32"}],"outputs":[{"name":"","type":"tuple","internalType":"struct MindyYieldRouter.BridgeTransfer","components":[{"name":"transferId","type":"bytes32","internalType":"bytes32"},{"name":"initiator","type":"address","internalType":"address"},{"name":"amount","type":"uint256","internalType":"uint256"},{"name":"sourceChainId","type":"uint256","internalType":"uint256"},{"name":"destChainId","type":"uint256","internalType":"uint256"},{"name":"destStrategy","type":"address","internalType":"address"},{"name":"timestamp","type":"uint256","internalType":"uint256"},{"name":"status","type":"uint8","internalType":"enum MindyYieldRouter.TransferStatus"},{"name":"sourceTxHash","type":"bytes32","internalType":"bytes32"},{"name":"destTxHash","type":"bytes32","internalType":"bytes32"}]}],"stateMutability":"view"},{"type":"function","name":"getTransferStatus","inputs":[{"name":"transferId","type":"bytes32","internalType":"bytes32"}],"outputs":[{"name":"","type":"uint8","internalType":"enum MindyYieldRouter.TransferStatus"}],"stateMutability":"view"},{"type":"function","name":"onTokensReceived","inputs":[{"name":"transferId","type":"bytes32","internalType":"bytes32"},{"name":"amount","type":"uint256","internalType":"uint256"}],"outputs":[],"stateMutability":"nonpayable"},{"type":"function","name":"owner","inputs":[],"outputs":[{"name":"","type":"address","internalType":"address"}],"stateMutability":"view"},{"type":"function","name":"renounceOwnership","inputs":[],"outputs":[],"stateMutability":"nonpayable"},{"type":"function","name":"setAIOperator","inputs":[{"name":"_aiOperator","type":"address","internalType":"address"}],"outputs":[],"stateMutability":"nonpayable"},{"type":"function","name":"setBridgeContract","inputs":[{"name":"_bridge","type":"address","internalType":"address"}],"outputs":[],"stateMutability":"nonpayable"},{"type":"function","name":"setBridgeFee","inputs":[{"name":"_feeBps","type":"uint256","internalType":"uint256"}],"outputs":[],"stateMutability":"nonpayable"},{"type":"function","name":"setVault","inputs":[{"name":"_vault","type":"address","internalType":"address"}],"outputs":[],"stateMutability":"nonpayable"},{"type":"function","name":"transferOwnership","inputs":[{"name":"newOwner","type":"address","internalType":"address"}],"outputs":[],"stateMutability":"nonpayable"},{"type":"function","name":"transfers","inputs":[{"name":"","type":"bytes32","internalType":"bytes32"}],"outputs":[{"name":"transferId","type":"bytes32","internalType":"bytes32"},{"name":"initiator","type":"address","internalType":"address"},{"name":"amount","type":"uint256","internalType":"uint256"},{"name":"sourceChainId","type":"uint256","internalType":"uint256"},{"name":"destChainId","type":"uint256","internalType":"uint256"},{"name":"destStrategy","type":"address","internalType":"address"},{"name":"timestamp","type":"uint256","internalType":"uint256"},{"name":"status","type":"uint8","internalType":"enum MindyYieldRouter.TransferStatus"},{"name":"sourceTxHash","type":"bytes32","internalType":"bytes32"},{"name":"destTxHash","type":"bytes32","internalType":"bytes32"}],"stateMutability":"view"},{"type":"function","name":"vault","inputs":[],"outputs":[{"name":"","type":"address","internalType":"contract IMindyVault"}],"stateMutability":"view"},{"type":"event","name":"AIOperatorUpdated","inputs":[{"name":"oldOperator","type":"address","indexed":true,"internalType":"address"},{"name":"newOperator","type":"address","indexed":true,"internalType":"address"}],"anonymous":false},{"type":"event","name":"BridgeContractUpdated","inputs":[{"name":"oldBridge","type":"address","indexed":true,"internalType":"address"},{"name":"newBridge","type":"address","indexed":true,"internalType":"address"}],"anonymous":false},{"type":"event","name":"BridgeFeeUpdated","inputs":[{"name":"oldFee","type":"uint256","indexed":false,"internalType":"uint256"},{"name":"newFee","type":"uint256","indexed":false,"internalType":"uint256"}],"anonymous":false},{"type":"event","name":"BridgeTransferCompleted","inputs":[{"name":"transferId","type":"bytes32","indexed":true,"internalType":"bytes32"},{"name":"destTxHash","type":"bytes32","indexed":false,"internalType":"bytes32"}],"anonymous":false},{"type":"event","name":"BridgeTransferFailed","inputs":[{"name":"transferId","type":"bytes32","indexed":true,"internalType":"bytes32"},{"name":"reason","type":"string","indexed":false,"internalType":"string"}],"anonymous":false},{"type":"event","name":"BridgeTransferInitiated","inputs":[{"name":"transferId","type":"bytes32","indexed":true,"internalType":"bytes32"},{"name":"initiator","type":"address","indexed":true,"internalType":"address"},{"name":"amount","type":"uint256","indexed":false,"internalType":"uint256"},{"name":"sourceChainId","type":"uint256","indexed":false,"internalType":"uint256"},{"name":"destChainId","type":"uint256","indexed":false,"internalType":"uint256"},{"name":"destStrategy","type":"address","indexed":false,"internalType":"address"}],"anonymous":false},{"type":"event","name":"BridgeTransferRefunded","inputs":[{"name":"transferId","type":"bytes32","indexed":true,"internalType":"bytes32"}],"anonymous":false},{"type":"event","name":"OwnershipTransferred","inputs":[{"name":"previousOwner","type":"address","indexed":true,"internalType":"address"},{"name":"newOwner","type":"address","indexed":true,"internalType":"address"}],"anonymous":false},{"type":"event","name":"TokensReceived","inputs":[{"name":"transferId","type":"bytes32","indexed":true,"internalType":"bytes32"},{"name":"amount","type":"uint256","indexed":false,"internalType":"uint256"}],"anonymous":false},{"type":"error","name":"OwnableInvalidOwner","inputs":[{"name":"owner","type":"address","internalType":"address"}]},{"type":"error","name":"OwnableUnauthorizedAccount","inputs":[{"name":"account","type":"address","internalType":"address"}]},{"type":"error","name":"ReentrancyGuardReentrantCall","inputs":[]}],"bytecode":{"object":"0x60806040526032600755348015610014575f80fd5b5060405161171c38038061171c83398101604081905261003391610103565b806001600160a01b03811661006157604051631e4fbdf760e01b81525f600482015260240160405180910390fd5b61006a816100b4565b5060017f9b779b17422d0df92223018b32b4d1fa46e071723d6817e2486d003becc55f0055600680546001600160a01b0319166001600160a01b0392909216919091179055610130565b5f80546001600160a01b038381166001600160a01b0319831681178455604051919092169283917f8be0079c531659141344cd1fd0a4f28419497f9722a3daafe3b4186f6b6457e09190a35050565b5f60208284031215610113575f80fd5b81516001600160a01b0381168114610129575f80fd5b9392505050565b6115df8061013d5f395ff3fe608060405234801561000f575f80fd5b5060043610610127575f3560e01c80639749e660116100a9578063cd5965831161006e578063cd596583146102de578063ed56d73f146102f1578063f2fde38b14610323578063f703f75414610336578063fbfa77cf14610349575f80fd5b80639749e6601461027f578063998cdf83146102925780639b47009d146102a5578063ade1af12146102b8578063c8a31e53146102cb575f80fd5b80636817031b116100ef5780636817031b1461021a578063715018a61461022d578063819d938f146102355780638da5cb5b146102485780639600e7d51461026c575f80fd5b80630b26cf661461012b578063260958a5146101405780633c64f04b14610169578063448878fc146101ee5780634f6aa42b14610203575b5f80fd5b61013e610139366004611152565b61035c565b005b61015361014e36600461116b565b6103ee565b60405161016091906111b6565b60405180910390f35b6101d861017736600461116b565b600160208190525f918252604090912080549181015460028201546003830154600484015460058501546006860154600787015460088801546009909801546001600160a01b039788169896979596949590931693919260ff90911691908a565b6040516101609a9998979695949392919061124e565b6101f66104fb565b60405161016091906112b0565b61020c60075481565b604051908152602001610160565b61013e610228366004611152565b610591565b61013e6105e1565b61013e610243366004611307565b6105f4565b5f546001600160a01b03165b6040516001600160a01b039091168152602001610160565b61020c61027a3660046113bc565b610781565b61013e61028d366004611152565b610b9f565b61013e6102a036600461116b565b610c28565b61013e6102b33660046113ee565b610cc3565b61020c6102c636600461116b565b610de8565b61013e6102d93660046113ee565b610e0a565b600554610254906001600160a01b031681565b6103166102ff36600461116b565b5f9081526001602052604090206007015460ff1690565b604051610160919061140e565b61013e610331366004611152565b610e90565b600654610254906001600160a01b031681565b600454610254906001600160a01b031681565b610364610ecd565b6001600160a01b0381166103935760405162461bcd60e51b815260040161038a9061141c565b60405180910390fd5b6005546040516001600160a01b038084169216907fa6396351cab7f85c5b5591ab726c9a38bb2895a193370b2c63cab20ba895680d905f90a3600580546001600160a01b0319166001600160a01b0392909216919091179055565b60408051610140810182525f80825260208201819052918101829052606081018290526080810182905260a0810182905260c0810182905260e0810182905261010081018290526101208101919091525f8281526001602081815260409283902083516101408101855281548152928101546001600160a01b0390811692840192909252600281015493830193909352600380840154606084015260048401546080840152600584015490911660a0830152600683015460c0830152600783015491929160e084019160ff909116908111156104cc576104cc611182565b60038111156104dd576104dd611182565b81526008820154602082015260099091015460409091015292915050565b60605f6105086002610ef9565b90505f8167ffffffffffffffff811115610524576105246112f3565b60405190808252806020026020018201604052801561054d578160200160208202803683370190505b5090505f5b8281101561058a57610565600282610f02565b82828151811061057757610577611453565b6020908102919091010152600101610552565b5092915050565b610599610ecd565b6001600160a01b0381166105bf5760405162461bcd60e51b815260040161038a9061141c565b600480546001600160a01b0319166001600160a01b0392909216919091179055565b6105e9610ecd565b6105f25f610f0d565b565b6005546001600160a01b0316331461061e5760405162461bcd60e51b815260040161038a90611467565b5f828152600160205260409020546106485760405162461bcd60e51b815260040161038a9061149e565b5f8281526001602052604081206007015460ff16600381111561066d5761066d611182565b146106b55760405162461bcd60e51b81526020600482015260186024820152774d696e6479526f757465723a206e6f742070656e64696e6760401b604482015260640161038a565b5f828152600160205260409020600701805460ff191660029081179091556106dd9083610f5c565b50600480545f848152600160205260409081902060020154905163d414e79d60e01b8152928301526001600160a01b03169063d414e79d906024015f604051808303815f87803b15801561072f575f80fd5b505af1158015610741573d5f803e3d5ffd5b50505050817ffaa693349d7651c608fafbb2df72ff1cfeb1624bfd2e438de286ef6c3d752c538260405161077591906114d5565b60405180910390a25050565b6006545f906001600160a01b03163314806107a557505f546001600160a01b031633145b6107f15760405162461bcd60e51b815260206004820152601c60248201527f4d696e6479526f757465723a206e6f74204149206f70657261746f7200000000604482015260640161038a565b6107f9610f67565b5f84116108485760405162461bcd60e51b815260206004820152601860248201527f4d696e6479526f757465723a207a65726f20616d6f756e740000000000000000604482015260640161038a565b6001600160a01b03821661089e5760405162461bcd60e51b815260206004820152601a60248201527f4d696e6479526f757465723a207a65726f207374726174656779000000000000604482015260640161038a565b8360045f9054906101000a90046001600160a01b03166001600160a01b03166346fcff4c6040518163ffffffff1660e01b8152600401602060405180830381865afa1580156108ef573d5f803e3d5ffd5b505050506040513d601f19601f820116820180604052508101906109139190611521565b10156109615760405162461bcd60e51b815260206004820152601f60248201527f4d696e6479526f757465723a20696e73756666696369656e742066756e647300604482015260640161038a565b6040516bffffffffffffffffffffffff1933606090811b82166020840152603483018790526054830186905284901b1660748201524260888201524360a88201525f9060c80160408051808303601f19018152828252805160209182012061014084018352808452338285019081528484018a81524660608701908152608087018b81526001600160a01b038b811660a08a019081524260c08b019081525f60e08c018181526101008d018290526101208d0182905289825260019a8b90529a90208b5181559651878a0180546001600160a01b03199081169286169290921790559551600288015593516003808801919091559251600487015551600586018054909516911617909255516006830155935160078201805493975091949093919260ff191691908490811115610a9a57610a9a611182565b0217905550610100820151600882015561012090910151600990910155610ac2600282610f95565b5060048054604051631b9c304160e11b81529182018790526001600160a01b0316906337386082906024015f604051808303815f87803b158015610b04575f80fd5b505af1158015610b16573d5f803e3d5ffd5b5050604080518881524660208201529081018790526001600160a01b03861660608201523392508391507f97f9ce4cc90ee390aee2d716b65be58ea402f875c0f0a571bcee4f239f071b499060800160405180910390a39050610b9860017f9b779b17422d0df92223018b32b4d1fa46e071723d6817e2486d003becc55f0055565b9392505050565b610ba7610ecd565b6001600160a01b038116610bcd5760405162461bcd60e51b815260040161038a9061141c565b6006546040516001600160a01b038084169216907f89f23c08aad3ec350deeffc182519744a40eb25c1d12306ceff16a90266f24b5905f90a3600680546001600160a01b0319166001600160a01b0392909216919091179055565b610c30610ecd565b6103e8811115610c825760405162461bcd60e51b815260206004820152601960248201527f4d696e6479526f757465723a2066656520746f6f206869676800000000000000604482015260640161038a565b60075460408051918252602082018390527f3e7af433b010df0902f945628a14ef63c63e1e5e8306127bde522445a470588f910160405180910390a1600755565b6005546001600160a01b03163314610ced5760405162461bcd60e51b815260040161038a90611467565b5f82815260016020526040902054610d175760405162461bcd60e51b815260040161038a9061149e565b5f8281526001602052604081206007015460ff166003811115610d3c57610d3c611182565b14610d845760405162461bcd60e51b81526020600482015260186024820152774d696e6479526f757465723a206e6f742070656e64696e6760401b604482015260640161038a565b5f82815260016020819052604090912060078101805460ff1916909217909155600901819055610db5600283610f5c565b50817f05ddc886acde01b77731bfad1dcfb6abf529f05c28ea66556fe87429bb2789ea8260405161077591815260200190565b5f61271060075483610dfa919061154c565b610e049190611563565b92915050565b6005546001600160a01b03163314610e345760405162461bcd60e51b815260040161038a90611467565b5f82815260016020526040902054610e5e5760405162461bcd60e51b815260040161038a9061149e565b817fce5e29d747f328342e0d75c78a1148639b57e1fa3ffa2363fcf26208eed64fe68260405161077591815260200190565b610e98610ecd565b6001600160a01b038116610ec157604051631e4fbdf760e01b81525f600482015260240161038a565b610eca81610f0d565b50565b5f546001600160a01b031633146105f25760405163118cdaa760e01b815233600482015260240161038a565b5f610e04825490565b5f610b988383610fa0565b5f80546001600160a01b038381166001600160a01b0319831681178455604051919092169283917f8be0079c531659141344cd1fd0a4f28419497f9722a3daafe3b4186f6b6457e09190a35050565b5f610b988383610fc6565b610f6f6110a9565b60027f9b779b17422d0df92223018b32b4d1fa46e071723d6817e2486d003becc55f0055565b5f610b9883836110eb565b5f825f018281548110610fb557610fb5611453565b905f5260205f200154905092915050565b5f81815260018301602052604081205480156110a0575f610fe8600183611582565b85549091505f90610ffb90600190611582565b905080821461105a575f865f01828154811061101957611019611453565b905f5260205f200154905080875f01848154811061103957611039611453565b5f918252602080832090910192909255918252600188019052604090208390555b855486908061106b5761106b611595565b600190038181905f5260205f20015f90559055856001015f8681526020019081526020015f205f905560019350505050610e04565b5f915050610e04565b7f9b779b17422d0df92223018b32b4d1fa46e071723d6817e2486d003becc55f00546002036105f257604051633ee5aeb560e01b815260040160405180910390fd5b5f81815260018301602052604081205461113057508154600181810184555f848152602080822090930184905584548482528286019093526040902091909155610e04565b505f610e04565b80356001600160a01b038116811461114d575f80fd5b919050565b5f60208284031215611162575f80fd5b610b9882611137565b5f6020828403121561117b575f80fd5b5035919050565b634e487b7160e01b5f52602160045260245ffd5b600481106111b257634e487b7160e01b5f52602160045260245ffd5b9052565b815181526020808301516101408301916111da908401826001600160a01b03169052565b5060408301516040830152606083015160608301526080830151608083015260a083015161121360a08401826001600160a01b03169052565b5060c083015160c083015260e083015161123060e0840182611196565b50610100838101519083015261012092830151929091019190915290565b8a81526001600160a01b038a81166020830152604082018a90526060820189905260808201889052861660a082015260c08101859052610140810161129660e0830186611196565b610100820193909352610120015298975050505050505050565b602080825282518282018190525f9190848201906040850190845b818110156112e7578351835292840192918401916001016112cb565b50909695505050505050565b634e487b7160e01b5f52604160045260245ffd5b5f8060408385031215611318575f80fd5b82359150602083013567ffffffffffffffff80821115611336575f80fd5b818501915085601f830112611349575f80fd5b81358181111561135b5761135b6112f3565b604051601f8201601f19908116603f01168101908382118183101715611383576113836112f3565b8160405282815288602084870101111561139b575f80fd5b826020860160208301375f6020848301015280955050505050509250929050565b5f805f606084860312156113ce575f80fd5b83359250602084013591506113e560408501611137565b90509250925092565b5f80604083850312156113ff575f80fd5b50508035926020909101359150565b60208101610e048284611196565b60208082526019908201527f4d696e6479526f757465723a207a65726f206164647265737300000000000000604082015260600190565b634e487b7160e01b5f52603260045260245ffd5b60208082526017908201527f4d696e6479526f757465723a206e6f7420627269646765000000000000000000604082015260600190565b6020808252601d908201527f4d696e6479526f757465723a20696e76616c6964207472616e73666572000000604082015260600190565b5f602080835283518060208501525f5b81811015611501578581018301518582016040015282016114e5565b505f604082860101526040601f19601f8301168501019250505092915050565b5f60208284031215611531575f80fd5b5051919050565b634e487b7160e01b5f52601160045260245ffd5b8082028115828204841417610e0457610e04611538565b5f8261157d57634e487b7160e01b5f52601260045260245ffd5b500490565b81810381811115610e0457610e04611538565b634e487b7160e01b5f52603160045260245ffdfea2646970667358221220938994bc7c74b4d892c8ca54fa9f17769f6003b5a0791be9b7e4b4b1a1bceab964736f6c63430008180033","linkReferences":{}},"methodIdentifiers":{"aiOperator()":"f703f754","bridgeContract()":"cd596583","bridgeFeeBps()":"4f6aa42b","bridgeToRollup(uint256,uint256,address)":"9600e7d5","calculateBridgeFee(uint256)":"ade1af12","confirmTransfer(bytes32,bytes32)":"9b47009d","failTransfer(bytes32,string)":"819d938f","getPendingTransfers()":"448878fc","getTransfer(bytes32)":"260958a5","getTransferStatus(bytes32)":"ed56d73f","onTokensReceived(bytes32,uint256)":"c8a31e53","owner()":"8da5cb5b","renounceOwnership()":"715018a6","setAIOperator(address)":"9749e660","setBridgeContract(address)":"0b26cf66","setBridgeFee(uint256)":"998cdf83","setVault(address)":"6817031b","transferOwnership(address)":"f2fde38b","transfers(bytes32)":"3c64f04b","vault()":"fbfa77cf"},"id":44}