{"abi":[{"type":"function","name":"getSession","inputs":[{"name":"user","type":"address","internalType":"address"},{"name":"agent","type":"address","internalType":"address"}],"outputs":[{"name":"","type":"tuple","internalType":"struct MindySessionKeyModule.Session","components":[{"name":"agent","type":"address","internalType":"address"},{"name":"maxAmount","type":"uint256","internalType":"uint256"},{"name":"spent","type":"uint256","internalType":"uint256"},{"name":"expiry","type":"uint256","internalType":"uint256"},{"name":"allowedSelectors","type":"bytes4[]","internalType":"bytes4[]"},{"name":"isActive","type":"bool","internalType":"bool"}]}],"stateMutability":"view"},{"type":"function","name":"getSessionRemaining","inputs":[{"name":"user","type":"address","internalType":"address"},{"name":"agent","type":"address","internalType":"address"}],"outputs":[{"name":"","type":"uint256","internalType":"uint256"}],"stateMutability":"view"},{"type":"function","name":"getUserAgents","inputs":[{"name":"user","type":"address","internalType":"address"}],"outputs":[{"name":"","type":"address[]","internalType":"address[]"}],"stateMutability":"view"},{"type":"function","name":"grantSession","inputs":[{"name":"agent","type":"address","internalType":"address"},{"name":"maxAmount","type":"uint256","internalType":"uint256"},{"name":"expiry","type":"uint256","internalType":"uint256"},{"name":"allowedSelectors","type":"bytes4[]","internalType":"bytes4[]"}],"outputs":[],"stateMutability":"nonpayable"},{"type":"function","name":"isSessionActive","inputs":[{"name":"user","type":"address","internalType":"address"},{"name":"agent","type":"address","internalType":"address"}],"outputs":[{"name":"","type":"bool","internalType":"bool"}],"stateMutability":"view"},{"type":"function","name":"revokeAllSessions","inputs":[],"outputs":[],"stateMutability":"nonpayable"},{"type":"function","name":"revokeSession","inputs":[{"name":"agent","type":"address","internalType":"address"}],"outputs":[],"stateMutability":"nonpayable"},{"type":"function","name":"sessions","inputs":[{"name":"","type":"address","internalType":"address"},{"name":"","type":"address","internalType":"address"}],"outputs":[{"name":"agent","type":"address","internalType":"address"},{"name":"maxAmount","type":"uint256","internalType":"uint256"},{"name":"spent","type":"uint256","internalType":"uint256"},{"name":"expiry","type":"uint256","internalType":"uint256"},{"name":"isActive","type":"bool","internalType":"bool"}],"stateMutability":"view"},{"type":"function","name":"userAgents","inputs":[{"name":"","type":"address","internalType":"address"},{"name":"","type":"uint256","internalType":"uint256"}],"outputs":[{"name":"","type":"address","internalType":"address"}],"stateMutability":"view"},{"type":"function","name":"validateAndConsumeSession","inputs":[{"name":"user","type":"address","internalType":"address"},{"name":"amount","type":"uint256","internalType":"uint256"},{"name":"selector","type":"bytes4","internalType":"bytes4"}],"outputs":[{"name":"","type":"bool","internalType":"bool"}],"stateMutability":"nonpayable"},{"type":"event","name":"SessionExpired","inputs":[{"name":"user","type":"address","indexed":true,"internalType":"address"},{"name":"agent","type":"address","indexed":true,"internalType":"address"}],"anonymous":false},{"type":"event","name":"SessionGranted","inputs":[{"name":"user","type":"address","indexed":true,"internalType":"address"},{"name":"agent","type":"address","indexed":true,"internalType":"address"},{"name":"maxAmount","type":"uint256","indexed":false,"internalType":"uint256"},{"name":"expiry","type":"uint256","indexed":false,"internalType":"uint256"},{"name":"allowedSelectors","type":"bytes4[]","indexed":false,"internalType":"bytes4[]"}],"anonymous":false},{"type":"event","name":"SessionRevoked","inputs":[{"name":"user","type":"address","indexed":true,"internalType":"address"},{"name":"agent","type":"address","indexed":true,"internalType":"address"}],"anonymous":false},{"type":"event","name":"SessionUsed","inputs":[{"name":"user","type":"address","indexed":true,"internalType":"address"},{"name":"agent","type":"address","indexed":true,"internalType":"address"},{"name":"amount","type":"uint256","indexed":false,"internalType":"uint256"},{"name":"selector","type":"bytes4","indexed":false,"internalType":"bytes4"}],"anonymous":false},{"type":"error","name":"ReentrancyGuardReentrantCall","inputs":[]}],"bytecode":{"object":"0x608060405234801561000f575f80fd5b5060017f9b779b17422d0df92223018b32b4d1fa46e071723d6817e2486d003becc55f0055610fe4806100415f395ff3fe608060405234801561000f575f80fd5b506004361061009b575f3560e01c806388c2475a1161006357806388c2475a146101aa578063b14bb914146101bd578063eaa5999a146101e0578063eba3220c14610200578063fb3c4ead14610208575f80fd5b806302efc0e21461009f5780631fa5d6a4146100c55780633d46519d146100da57806351ca9ff9146100fa578063662a2bb914610125575b5f80fd5b6100b26100ad366004610cc4565b61021b565b6040519081526020015b60405180910390f35b6100d86100d3366004610cf5565b610283565b005b6100ed6100e8366004610cf5565b610351565b6040516100bc9190610d15565b61010d610108366004610d61565b6103c4565b6040516001600160a01b0390911681526020016100bc565b610176610133366004610cc4565b5f602081815292815260408082209093529081522080546001820154600283015460038401546005909401546001600160a01b0390931693919290919060ff1685565b604080516001600160a01b03909616865260208601949094529284019190915260608301521515608082015260a0016100bc565b6100d86101b8366004610d89565b6103f8565b6101d06101cb366004610cc4565b61066b565b60405190151581526020016100bc565b6101f36101ee366004610cc4565b6106ab565b6040516100bc9190610e18565b6100d86107d2565b6101d0610216366004610eca565b6108f9565b6001600160a01b038083165f908152602081815260408083209385168352929052908120600581015460ff161580610257575080600301544210155b15610265575f91505061027d565b806002015481600101546102799190610f17565b9150505b92915050565b335f908152602081815260408083206001600160a01b038516845290915290206005015460ff166102fb5760405162461bcd60e51b815260206004820152601f60248201527f4d696e647953657373696f6e3a206e6f206163746976652073657373696f6e0060448201526064015b60405180910390fd5b335f818152602081815260408083206001600160a01b0386168085529252808320600501805460ff19169055519092917f9a20fd73f3c4985be44f081964b55d63f69ed94995474740c82bfbff9d6ab5c491a350565b6001600160a01b0381165f908152600160209081526040918290208054835181840281018401909452808452606093928301828280156103b857602002820191905f5260205f20905b81546001600160a01b0316815260019091019060200180831161039a575b50505050509050919050565b6001602052815f5260405f2081815481106103dd575f80fd5b5f918252602090912001546001600160a01b03169150829050565b610400610af6565b6001600160a01b0385166104565760405162461bcd60e51b815260206004820152601a60248201527f4d696e647953657373696f6e3a207a65726f206164647265737300000000000060448201526064016102f2565b4283116104a55760405162461bcd60e51b815260206004820152601c60248201527f4d696e647953657373696f6e3a20696e76616c6964206578706972790000000060448201526064016102f2565b806104f25760405162461bcd60e51b815260206004820152601a60248201527f4d696e647953657373696f6e3a206e6f2073656c6563746f727300000000000060448201526064016102f2565b5f84116105415760405162461bcd60e51b815260206004820152601d60248201527f4d696e647953657373696f6e3a207a65726f206d617820616d6f756e7400000060448201526064016102f2565b335f908152602081815260408083206001600160a01b03891684529091529020600581015460ff166105a457335f90815260016020818152604083208054928301815583529091200180546001600160a01b0319166001600160a01b0388161790555b80546001600160a01b0319166001600160a01b038716178155600181018590555f6002820155600381018490556105df600482018484610be2565b5060058101805460ff191660011790556040516001600160a01b0387169033907f061c56fdb9347c7fcd65790befbf119a75b894c2fcaee4e64be10741527375a190610632908990899089908990610f2a565b60405180910390a35061066460017f9b779b17422d0df92223018b32b4d1fa46e071723d6817e2486d003becc55f0055565b5050505050565b6001600160a01b038083165f908152602081815260408083209385168352929052908120600581015460ff16801561027957506003015442109392505050565b6106ea6040518060c001604052805f6001600160a01b031681526020015f81526020015f81526020015f8152602001606081526020015f151581525090565b6001600160a01b038084165f908152602081815260408083208685168452825291829020825160c0810184528154909416845260018101548483015260028101548484015260038101546060850152600481018054845181850281018501909552808552919360808601939092908301828280156107b157602002820191905f5260205f20905f905b82829054906101000a900460e01b6001600160e01b031916815260200190600401906020826003010492830192600103820291508084116107735790505b50505091835250506005919091015460ff1615156020909101529392505050565b335f908152600160205260408120905b81548110156108f557335f908152602081905260408120835490919084908490811061081057610810610f87565b5f9182526020808320909101546001600160a01b0316835282019290925260400190206005015460ff16156108ed57335f9081526020819052604081208354829085908590811061086357610863610f87565b5f918252602080832091909101546001600160a01b031683528201929092526040019020600501805460ff191691151591909117905581548290829081106108ad576108ad610f87565b5f9182526020822001546040516001600160a01b039091169133917f9a20fd73f3c4985be44f081964b55d63f69ed94995474740c82bfbff9d6ab5c49190a35b6001016107e2565b5050565b6001600160a01b0383165f908152602081815260408083203384529091528120600581015460ff1661096d5760405162461bcd60e51b815260206004820152601e60248201527f4d696e647953657373696f6e3a2073657373696f6e20696e616374697665000060448201526064016102f2565b806003015442106109c05760405162461bcd60e51b815260206004820152601d60248201527f4d696e647953657373696f6e3a2073657373696f6e206578706972656400000060448201526064016102f2565b6109ca8184610b24565b610a215760405162461bcd60e51b815260206004820152602260248201527f4d696e647953657373696f6e3a2073656c6563746f72206e6f7420616c6c6f77604482015261195960f21b60648201526084016102f2565b8060010154848260020154610a369190610f9b565b1115610a845760405162461bcd60e51b815260206004820152601960248201527f4d696e647953657373696f6e3a2065786365656473206d61780000000000000060448201526064016102f2565b83816002015f828254610a979190610f9b565b9091555050604080518581526001600160e01b03198516602082015233916001600160a01b038816917fa03963c3c6e289bf4f570a7bcc36e8cd167042464e902b8bbd029ca84acebd86910160405180910390a3506001949350505050565b610afe610b9e565b60027f9b779b17422d0df92223018b32b4d1fa46e071723d6817e2486d003becc55f0055565b5f805b6004840154811015610b9557826001600160e01b031916846004018281548110610b5357610b53610f87565b905f5260205f2090600891828204019190066004029054906101000a900460e01b6001600160e01b03191603610b8d57600191505061027d565b600101610b27565b505f9392505050565b7f9b779b17422d0df92223018b32b4d1fa46e071723d6817e2486d003becc55f0054600203610be057604051633ee5aeb560e01b815260040160405180910390fd5b565b828054828255905f5260205f2090600701600890048101928215610c85579160200282015f5b83821115610c535783356001600160e01b03191683826101000a81548163ffffffff021916908360e01c02179055509260200192600401602081600301049283019260010302610c08565b8015610c835782816101000a81549063ffffffff0219169055600401602081600301049283019260010302610c53565b505b50610c91929150610c95565b5090565b5b80821115610c91575f8155600101610c96565b80356001600160a01b0381168114610cbf575f80fd5b919050565b5f8060408385031215610cd5575f80fd5b610cde83610ca9565b9150610cec60208401610ca9565b90509250929050565b5f60208284031215610d05575f80fd5b610d0e82610ca9565b9392505050565b602080825282518282018190525f9190848201906040850190845b81811015610d555783516001600160a01b031683529284019291840191600101610d30565b50909695505050505050565b5f8060408385031215610d72575f80fd5b610d7b83610ca9565b946020939093013593505050565b5f805f805f60808688031215610d9d575f80fd5b610da686610ca9565b94506020860135935060408601359250606086013567ffffffffffffffff80821115610dd0575f80fd5b818801915088601f830112610de3575f80fd5b813581811115610df1575f80fd5b8960208260051b8501011115610e05575f80fd5b9699959850939650602001949392505050565b5f602080835260e0830160018060a01b03855116828501528185015160408501526040850151606085015260608501516080850152608085015160c060a08601528181518084526101008701915084830193505f92505b80831015610e995783516001600160e01b0319168252928401926001929092019190840190610e6f565b5060a087015180151560c088015293509695505050505050565b80356001600160e01b031981168114610cbf575f80fd5b5f805f60608486031215610edc575f80fd5b610ee584610ca9565b925060208401359150610efa60408501610eb3565b90509250925092565b634e487b7160e01b5f52601160045260245ffd5b8181038181111561027d5761027d610f03565b848152602080820185905260606040830181905282018390525f90849060808401835b86811015610f7a576001600160e01b0319610f6785610eb3565b1682529282019290820190600101610f4d565b5098975050505050505050565b634e487b7160e01b5f52603260045260245ffd5b8082018082111561027d5761027d610f0356fea2646970667358221220ac1ba5656a3f328533b4ed45f1a43dc9fc63155d9aff1ff83d1d685bb0fb5cef64736f6c63430008180033","linkReferences":{}},"methodIdentifiers":{"getSession(address,address)":"eaa5999a","getSessionRemaining(address,address)":"02efc0e2","getUserAgents(address)":"3d46519d","grantSession(address,uint256,uint256,bytes4[])":"88c2475a","isSessionActive(address,address)":"b14bb914","revokeAllSessions()":"eba3220c","revokeSession(address)":"1fa5d6a4","sessions(address,address)":"662a2bb9","userAgents(address,uint256)":"51ca9ff9","validateAndConsumeSession(address,uint256,bytes4)":"fb3c4ead"},"id":41}